:102163004B65793A203078000D0A00496E69742076
:10217300436F6D706C657465004D6F64653A2054F0
:07218300726163696E6700E1
:1020DF004400290000000044002D000000004200D1
:1020EF000400004100270041000340410026404109
:0C20FF0000280041000200420000000028
:101F510090005DEBF0A3EAF0A3E9F090005DE0FBF7
:101F6100A3E0FAA3E0F912062E601A90005DA3E443
:101F710075F0011206FDA9F0FA12062EF5993099B5
:061F8100FDC29980D6228A
:101F8700EFC4540FFEC3940AEE50052430FD8003BE
:101F97002437FD8D993099FDC299EF540FFEC394F4
:101FA7000AEE50052430FF80032437FF8F993099BC
:031FB700FDC299CF
:011FBA002204
:0F225000900029E0FCA3E0FDA3E0FEA3E0FF2245
:0722B300D28AD2AAD2AF22A9
:1015CC001222509000601208D490002DE0F8A3E095
:1015DC00F9A3E0FAA3E0FB900060E0FCA3E0FDA31C
:1015EC00E0FEA3E0C39BFFEE9AFEED99FDEC98FCA8
:1015FC00E47BC8FAF9F8C31208685008E4FDFC7FD4
:10160C0006021759900003E024F4700302172524F6
:10161C00F770030216DC24FD700302172A24D56030
:10162C006514601724E6700302172F241860030258
:10163C0017467D517C04E4FF0217202001097D51DF
:10164C007C047F0402172090002DE0F8A3E0F9A39E
:10165C00E0FAA3E0FB900060E0FCA3E0FDA3E0FE59
:10166C00A3E0C39BFFEE9AFEED99FDEC98FCE47BA6
:10167C0032FAF9F8C312086840030217587D517CFE
:10168C00047F040217202001097D517C047F050290
:10169C00172090002DE0F8A3E0F9A3E0FAA3E0FBFB
:1016AC00900060E0FCA3E0FDA3E0FEA3E0C39BFF81
:1016BC00EE9AFEED99FDEC98FCE47B32FAF9F8C356
:1016CC0012086840030217587D517C047F05804442
:1016DC002001087D517C047F01803990002DE0F8B9
:1016EC00A3E0F9A3E0FAA3E0FB900060E0FCA3E028
:1016FC00FDA3E0FEA3E0C39BFFEE9AFEED99FDEC8B
:10170C0098FCE47B32FAF9F8C3120868503E7D511C
:10171C007C047F01121759800D12226E8008122250
:10172C00BA80031222C1900060E0FCA3E0FDA3E0AC
:10173C00FEA3E0FF90002D0208D4E4FDFC7F06120E
:0C174C00175990002D1208E0000000006A
:01175800226E
:0C226E00E4900002F0FDFC7F060217590E
:0722BA009000027401F02204
:0722C1009000027402F022FC
:03001300020C0BD1
:100C0B00C0E0C0F0C083C082C0D075D000C000C0AF
:0D0C1B0001C002C003C004C005C006C00730
:100C2800C2AFC2AA900004E4F0A3F020B32790005A
:100C380005E004F07006900004E004F07F647E0094
:100C4800121ECAD3900005E094B4900004E094000A
:100C580040D9020E9A900004E0FEA3E0FFC394502E
:100C6800EE94005003020E9AD3EF9464EE94004081
:100C780003020E9A900004E4F0A3F030B32490002D
:100C880005E004F07006900004E004F07F647E0044
:100C9800121ECAD3900005E0945A900004E0940014
:100CA80040D9900004E0FEA3E0FFC39414EE940042
:100CB8004016D3EF9419EE9400500D900026E09062
:100CC8000003F0D201020E9A900004E0FEA3E0FFB8
:100CD800C39428EE94005003020E9AD3EF9432EE98
:100CE80094004003020E9A900027E4F0900027E059
:080CF800C394204003020D9B90
:100D000090005BE4F0A3F020B32790005CE004F0D7
:100D1000700690005BE004F07F147E00121ECAD3C0
:100D200090005CE094E890005BE0940340D9020EF0
:100D30009A900004E4F0A3F090005BF0A3F030B3CD
:100D40002D900005E004F07006900004E004F07FB0
:100D5000147E00121ECA90005BE475F0011206FDBD
:100D6000FED3E5F094E8EE940340D3020E9AD390BC
:100D70000005E09438900004E0940040047F018076
:100D8000027F00900027E02406F582E43400F5831A
:080D9000EFF0900027E004F0F1
:100D9800020CF4C200900004E4F0A3F0900004E018
:100DA800FEA3E0FF240EF58274003EF583E0FD7497
:100DB800062FF58274003EF583E0B50504D2008065
:100DC8001A900005E004F07006900004E004F0902A
:100DD8000004E07004A3E0640870C1300003020E50
:100DE8009AC200900004E4F0A3F0900004E0FEA38F
:100DF800E0FF241EF58274003EF583E0FD74162F93
:100E0800F58274003EF583E0B50504D200801A909F
:100E18000005E004F07006900004E004F09000047F
:100E2800E07004A3E0640870C1200066900003E449
:100E3800F0900028F0900028E0FFC39408502F7429
:100E4800162FF582E43400F583E0B401199000030D
:100E5800E0FF900028E0FEF87401088002C333D850
:100E6800FC4F900003F0900028E004F080C7900049
:100E780003E0900026F0C2017BFF7A217963121FFC
:100E880051900003E0FF121F877BFF7A21796B12D4
:090E98001F51438804D2AAD2AF15
:100EA100D007D006D005D004D003D002D001D000A5
:0B0EB100D0D0D082D083D0F0D0E0324F
:101B700020A10B20A2087DC57C07E4FF801A20A1CC
:101B80000B30A2087DC57C077F02800C30A10C20A1
:0B1B9000A2097DC57C077F03021759E6
:101B9B00900000E0FEA3E0FFEE7051EF14603814EC
:101BAB00603D2402704630A01530A2127DC57C0723
:101BBB007F03121759900000E4F0A304F02230A128
:101BCB002B30A3287DC57C077F021217599000008C
:101BDB00E4F0A37402F02230A01220A20F800620A2
:0C1BEB00A10A30A307E4900000F0A3F072
:011BF70022CB
:101BF80012210C7F017E00121E3112218A121C7ADA
:101C08001222B37F807E251220B17F647E00121ECF
:101C1800317BFF7A21796EE4FDFF121E827BFF7A09
:101C280021797C7D02E4FF121E82900002E070059B
:101C38001215CC8016900002E0B40105120EBC808B
:101C48000A900002E0B402031219BB7F0A7E001258
:101C58001E31900002E0B40108A3E0B40C03122284
:101C68006E900002E0B402C2A3E0B40CBD12226E72
:021C780080B832
:102219009000687403F0A3743FF07B017A00796839
:0C222900E4FF1210C17D3FE4FF022139E8
:10218A00E4900060F0A3F0A304F0E4A3F0A3F0A3AA
:10219A0074F7F0A3745DF0A37401F0FB7A00796020
:0721AA00FF12128A02221944
:1021B100EF245DFDEE34F7FCC3E49FFFE49EC2AF64
:1021C100900091F0A3EFF0AE04AF0590008FEEF018
:0521D100A3EFF0D2AF06
:0121D60022E6
:03001B00021F0EB3
:101F0E00C0E0C083C082C0D075D000C004C0053010
:101F1E008413900091E0FCA3E0FDECF58D8D8BC257
:101F2E0084C285801190008FE0FCA3E0FDECF58D5E
:101F3E008D8BD284D285D005D004D0D0D082D083E0
:031F4E00D0E032AE
:10175900900064EFF0A3ECF0A3EDF0C394F4EC94E3
:1017690001500A9000657401F0A374F4F0900065CB
:10177900E0FEA3E0FFE4FCFD7BA27A08F9F8C312BE
:101789000868500A9000657408F0A374A2F09000EC
:1017990064E0B40700400302184D9017AAF82828FE
:1017A900730217BF0217C80217D80217E80217F108
:1017B9000218080218267D08E4FF12213980177DD6
:1017C90008E4FF1220817D04E4FF122139803E7D67
:1017D90008E4FF1220817D04E4FF12208180177D37
:1017E90008E4FF122139803C7D08E4FF1220817D45
:1017F90004E4FF1221397D01E4FF12213980337D90
:1018090008E4FF1221397D04E4FF1220817D01E4FF
:10181900FF1220817D02E4FF122139801C7D08E43A
:10182900FF1220817D04E4FF1220817D01E4FF1273
:1018390020817D02E4FF122081900065E0FEA3E093
:10184900FF0221B17D08E4FF1220817D04E4FF122B
:1018590020817D01E4FF1220817D02E4FF122081B5
:01186900225C
:10003E0000000000000000000000000000000000B2
:10004E00000000F800000000000000333000000047
:10005E0000100C06100C060000000000000000004E
:10006E0040C07840C0784000043F04043F040400C0
:10007E00007088FC08300000001820FF211E0000D0
:10008E00F008F000E018000000211C031E211E00E5
:10009E0000F00888700000001E212324192721106B
:1000AE0010160E000000000000000000000000000E
:1000BE00000000E0180402000000000718204000B5
:1000CE0000020418E00000000040201807000000A5
:1000DE00404080F0804040000202010F0102020009
:1000EE00000000F0000000000101011F01010100ED
:1000FE00000000000000000080B070000000000052
:10010E0000000000000000000001010101010101DA
:10011E000000000000000000003030000000000071
:10012E000000000080601804006018060100000046
:10013E0000E010080810E000000F102020100F0043
:10014E00001010F8000000000020203F20200000CA
:10015E000070080808887000003028242221300022
:10016E0000300888884830000018202020110E002A
:10017E000000C02010F8000000070424243F2400D3
:10018E0000F80888880808000019212020110E00A8
:10019E0000E0108888180000000F112020110E00BA
:1001AE0000380808C83808000000003F00000000B2
:1001BE000070880808887000001C222121221C0073
:1001CE0000E010080810E0000000312222110F009C
:1001DE00000000C0C0000000000000303000000031
:1001EE0000000080000000000000806000000000A1
:1001FE0000008040201008000001020408102000BA
:10020E004040404040404000040404040404040004
:10021E000008102040800000002010080402010099
:10022E00007048080808F000000000303601000099
:10023E00C030C828E810E0000718272423140B004C
:10024E000000C038E0000000203C230202273820C6
:10025E0008F8888888700000203F202020110E00AA
:10026E00C0300808080838000718202020100800A1
:10027E0008F808080810E000203F202020100F008A
:10028E0008F88888E8081000203F20202320180056
:10029E0008F88888E8081000203F200003000000BE
:1002AE00C03008080838000007182020221E02005F
:1002BE0008F808000008F808203F210101213F201E
:1002CE00000808F8080800000020203F2020000049
:1002DE0000000808F8080800C08080807F00000039
:1002EE0008F888C028180800203F20012638200072
:1002FE0008F8080000000000203F202020203000D9
:10030E0008F8F800F8F80800203F003F003F2000F2
:10031E0008F830C00008F808203F200007183F00FA
:10032E00E01008080810E0000F10202020100F0029
:10033E0008F808080808F000203F2101010100001C
:10034E00E01008080810E0000F18242438504F0061
:10035E0008F8888888887000203F2000030C302021
:10036E0000708808080838000038202121221C005F
:10037E00180808F8080818000000203F20000000A8
:10038E0008F808000008F808001F202020201F0091
:10039E000878880000C83808000007380E010000F1
:1003AE00F80800F80008F800033C0700073C0300BB
:1003BE00081868808068180820302C03032C302021
:1003CE000838C800C83808000000203F2000000090
:1003DE0010080808C83808002038262120201800E8
:1003EE00000000FE020202000000007F40404000BC
:1003FE00000C30C000000000000000010638C000F4
:10040E0000020202FE000000004040407F0000009B
:10041E0000000402020204000000000000000000C0
:10042E0000000000000000008080808080808080BE
:10043E0000020204000000000000000000000000A6
:10044E0000008080808000000019242222223F209C
:10045E0008F8008080000000003F112020110E00DF
:10046E000000008080800000000E1120202011006E
:10047E00000000808088F800000E112020103F2020
:10048E000000808080800000001F222222221300A4
:10049E00008080F0888888180020203F20200000EF
:1004AE000000808080808000006B949494936000A4
:1004BE0008F8008080800000203F210000203F20AF
:1004CE0000809898000000000020203F20200000AF
:1004DE00000000809898000000C08080807F00009F
:1004EE0008F8000080808000203F24022D3020007C
:1004FE00000808F8000000000020203F2020000027
:10050E008080808080808000203F20003F20003F40
:10051E008080008080800000203F210000203F204E
:10052E000000808080800000001F202020201F00FF
:10053E00808000808000000080FFA12020110E002E
:10054E000000008080808000000E112020A0FF801F
:10055E00808080008080800020203F2120000100CC
:10056E000000808080808000003324242424190021
:10057E00008080E0808000000000001F202000002E
:10058E008080000000808000001F202020103F206F
:10059E00808080000080808000010E3008060100FF
:1005AE0080800080008080800F300C030C300F00A4
:1005BE0000808000808080000020312E0E312000CF
:1005CE00808080000080808080818E7018060100FF
:1005DE0000808080808080000021302C222130001D
:1005EE0000000000807C020200000000003F40403E
:1005FE0000000000FF00000000000000FF000000EF
:10060E000002027C800000000040403F000000001D
:10061E0000060101020204040000000000000000B8
:09229000EF6003D2A522C2A522D1
:09229900EF6003D2A422C2A422CA
:10202100E4900060F0A37420F07B017A0079607F76
:10203100021210C1E4900060F0A37410F07B017AE9
:102041000079607F021210C17F0112229002229951
:0F225F007F011222991222901F122299022290BF
:0C227A00E4FF1222990F12229002229918
:071FEF00AC0712225F7F78AE
:021FF600AE0734
:101FF800E4FDA8057480088002C313D8FC5EFF12B4
:1020080022997F011222901F1222900DEDB408E24E
:092018007F011222901F022290A8
:10002600121FEFE4FF121FF6AF04121FF602227A28
:1021F9003EF583E5822DF582E43583F583E493FF8B
:10220900121FEF7F40121FF6AF04121FF602227A47
:0621D7001475F008A4FDE0
:1021DD00AB05EF44B0FF120026EB54F0C4540F448E
:0C21ED0010FF120026EB540FFF0200262A
:10223500E4FAAF02E4FD1221DDE4FBE4FF1222091A
:0A2245000BEBB480F60AEAB408E8D7
:01224F00226C
:0D1A5000900068EBF0900066EFF0A3EDF061
:101A5D00EF1425E0FFED1221D7E4900069F090001E
:101A6D0069E0FDC394085029900068E0FF3395E0CC
:101A7D00FEEFC4F8540FC868FFEEC454F048FE746E
:101A8D003E2FF58274FE1221F9900069E004F0807A
:101A9D00CD900066E025E014FFA3E01221D7E4907D
:101AAD000069F0900069E0FDC3940850299000682A
:101ABD00E0FF3395E0FEEFC4F8540FC868FFEEC4A5
:101ACD0054F048FE74462FF58274FE1221F99000F1
:061ADD0069E004F080CD79
:011AE30022E0
:101E8200900060EFF0A3EDF0A3EBF0A3EAF0A3E97A
:011E9200F05F
:101E9300E4A3F0900062E0FBA3E0FAA3E0F9A3E07F
:101EA300F582758300120647FB601B900060E0FF1C
:101EB300900065E0FE900061E02EFD121A50900044
:061EC30065E004F080CD93
:011EC90022F6
:101C7A001220217FAE1200267FD51200267F801205
:101C8A0000267FA81200267F3F1200267FD312006B
:101C9A0026E4FF1200267F401200267FA1120026AA
:101CAA007FC81200267FDA1200267F121200267FD2
:101CBA00811200267FCF1200267FD91200267FF1DB
:101CCA001200267FDB1200267F301200267FA41224
:101CDA0000267FA61200267F8D1200267F1412008E
:091CEA00267FAF1200260222350C
:1020B1009000607440F0A37402F0E4FCFDA31208E8
:1020C100D49000677401F0E4A3F0A304F0A3F0A39B
:0E20D1007440F07B017A0079607F01020947BC
:051CF30090008AEDF0F5
:101CF800E4A3F0A3EBF0A3EAF0A3E9F090008AE0F4
:101D0800FFA3E0FEC39F5055C2AF900032E0FF90A2
:101D18000031E0B50704D2AF8043900031E02433AE
:101D2800F582E43400F583E0FF90008CE0FBA3E04B
:101D3800FAA3E0F98E82758300EF120686900031CF
:101D4800E02401FFE433FE7C007D281206A8AF05DD
:101D5800EDF0D2AF0090008BE004F0809F90008BF4
:021D6800E0FF9A
:011D6A002256
:10205100900093EBF0A3EAF0A3E9F0E4FFEFC39D56
:10206100501D900093E0FBA3E0FAA3E0F98F827585
:0F2071008300120647F5993099FDC2990F80DE62
:01208000223D
:03002300021D6B50
:101D6B00C0E0C0F0C083C082C0D075D000C000C03E
:091D7B0003C004C005C006C00746
:101D8400309842AB99C298900032E02401FFE433CA
:101D9400FE7C007D281206A8AF05900031E06D603E
:101DA40024AF03A3E02433F582E43400F583EBF09D
:101DB400900032E02401FFE433FE7C007D2812060B
:051DC400A8AF05EDF0E1
:101DC900D007D006D005D004D003D000D0D0D0821F
:071DD900D083D0F0D0E0320E
:080003008F993099FDC299228A
:1010C100EFD3940540057E007F012212062EFDD349
:1010D100940340057E007F0222EF7041ED700B907A
:1010E1000001120647F45293529412062EB4010BDA
:1010F1009000011206474293F4529412062EFEB458
:10110100020A90000112064742934294EEB4030D85
:10111100900001120647FEF45293EE4294EF6401EF
:10112100704312062EFE700B900001120647F45216
:10113100915292EEB4010B9000011206474291F4D4
:10114100529212062EB4020A9000011206474291F1
:10115100429212062EB4030D900001120647FEF4CE
:101161005291EE4292EF6402704312062EFE700B12
:10117100900001120647F452955296EEB4010B907D
:1011810000011206474295F4529612062EB4020A45
:101191009000011206474295429612062EB4030DA5
:1011A100900001120647FEF45295EE4296EF640359
:1011B100704312062EFE700B900001120647F45286
:1011C100B152B2EEB4010B90000112064742B1F4E4
:1011D10052B212062EB4020A90000112064742B121
:1011E10042B212062EB4030D900001120647FEF41E
:1011F10052B1EE42B2EF6404704312062EFE700B40
:10120100900001120647F452B352B4EEB4010B90B0
:10121100000112064742B3F452B412062EB4020A78
:1012210090000112064742B342B412062EB4030DD8
:10123100900001120647FEF452B3EE42B4EF64058A
:10124100704312062EFF700B900001120647F452F4
:10125100C952CAEFB4010B90000112064742C9F40A
:1012610052CA12062EB4020A90000112064742C960
:1012710042CA12062EB4030D900001120647FFF474
:0912810052C9EF42CAE4FEFF224B
:10213900EF7003ED4280EFB40103ED4290EFB4027A
:1021490003ED42A0EFB40303ED42B0EFB40403ED95
:0A21590042C0EFB40503ED42C822B6
:10208100EF7004EDF45280EFB40104EDF45290EFDF
:10209100B40204EDF452A0EFB40304EDF452B0EF36
:1020A100B40404EDF452C0EFB40504EDF452C822B7
:101FBB00EF7004AE808026EFB40104AE90801EEF6C
:101FCB00B40204AEA08016EFB40304AEB0800EEFE3
:101FDB00B40404AEC08006EFB40507AEC8EE5D24B2
:031FEB00FF22C30F
:011FEE0022D0
:02001600F8CD23
:10210C009000607401F0A3F0A3F0A3F0E4A3F090AE
:10211C00001693FF740193900065CFF0A3EFF0A32A
:0D212C007401F0FB7A007960E4FF02128A72
:03000B00021DE0F3
:101DE000C0E0C0F0C083C082C0D075D000C000C0C9
:101DF00004C005C006C007900016E493FE7401936A
:101E0000F58AEEF58C780812088CEF2401FFE43E89
:101E1000FEE43DFDE43CFC78081208C8D007D0067B
:101E2000D005D004D000D0D0D082D083D0F0D0E084
:011E3000327F
:09228600C2AF780812088CD2AF37
:01228F00222C
:04000E007F03DFFE8F
:0100120022CB
:0722AB000000007F34DFFE9C
:0122B2002209
:0822A2007F037E1ADEFEDFFC63
:0122AA002211
:101ECA00AD07AC06C3ED9464EC9400400D1222A257
:101EDA00749C2DFD74FF3CFC80EAC3ED940AEC94DB
:101EEA0000400D1222AB74F62DFD74FF3CFC80EA13
:101EFA00D3ED9400EC9400400A12000EED1D70F030
:041F0A001C80ED2228
:081E3100900064EEF0A3EFF055
:101E39001222869000661208D412228690006A1235
:101E490008D4900066E0F8A3E0F9A3E0FAA3E0FB68
:101E5900A3E0FCA3E0FDA3E0FEA3E0C39BFBEE9A95
:101E6900FAED99F9EC98F8900064E0FEA3E0FFE43C
:081E7900FCFDC312086840C122
:011E8100223E
:10128A00AD07EDD3940240057E007F0122ED600395
:10129A00021320C28C900002120647B40104D2A99C
:1012AA008002C2A9900001120647B40104D2B98093
:1012BA0002C2B912062EFCD394034003021428E595
:1012CA008954FC4CF589900003120647FFB40103C8
:1012DA00538E7FEF7003438E80EFB4020543890477
:1012EA0080035389FB900004120647B40105438F1B
:1012FA00018003538FFE900005120713E5F0F58C69
:10130A00900005120713F58A900007120647B401E8
:10131A0002D28C021424ED640160030213AFC28E60
:10132A00900002120647B40104D2AB8002C2AB900D
:10133A000001120647B40104D2BB8002C2BB1206E6
:10134A002EFCC394034003021428ECC454F0FFE5B6
:10135A008954CF4FF589900003120647FFB4010361
:10136A00538EBFEF7003438E40EFB40205438940AA
:10137A0080035389BF900004120647B40105438FC6
:10138A00028003538FFD900005120713E5F0F58DD7
:10139A00900005120713F58B900007120647B40157
:1013AA0002D28E8075ED64027074538EEF90000243
:1013BA00120647B4010543AF04800353AFFB900004
:1013CA0003120647FDD3940240028052EDB4010392
:1013DA00538EFB9000031206477003438E0490005D
:1013EA0003120647B40205438E088003538EF79012
:1013FA000004120647B40105438F048003538FFB90
:10140A00900005120713FDACF0ECF5D68DD79000CD
:10141A0007120647B40103438E10E4FEFF227E0042
:03142A007F02221C
:10186A00EF7034D3ED9450EC940F40047C0F7D500C
:10187A00C3ED9450EC940050047C007D50C2DE907D
:10188A00007EECF0A3EDF0C374A09D900079F07493
:10189A000F9C9000788073EF64017034D3ED9468E4
:1018AA00EC940B40047C0B7D68C3ED9450EC9400DF
:1018BA0050047C007D50C2DE900080ECF0A3EDF075
:1018CA00C374B89D90007BF0740B9C90007A803AA8
:1018DA00EF64027038D3ED9480EC940740047C07DF
:1018EA007D80C3ED9450EC940050047C007D50C27E
:1018FA00DE900082ECF0A3EDF0AE04FFC374D09F3B
:0E190A0090007DF074079E90007CF0D2DE22EB
:10142D00900096EBF0A3EAF0A3E9F0AD07EDD394AD
:10143D000340030215CBED6403704CC2DEF5F9F5E4
:10144D00E9900096E0FBA3E0FAA3E0F912062EFF67
:10145D00E5A254CF4FF5A2900001120647FFE5D942
:10146D0054F14FF5D99000041206475401FFE5D908
:10147D0054FE4FF5D9900005120647B40104D2BFB2
:10148D008002C2BFD2DE22900096E0FBA3E0FAA359
:10149D00E02404F9E43AFA12062E5431120674903F
:1014AD000096E0FBA3E0FAA3E0F9900002120647D4
:1014BD00C39448400FE92404F9E43AFA12062E5475
:1014CD00CF120674ED704F900096E0FBA3E0FAA3E7
:1014DD00E0F9900004120647FF900002120647FE45
:1014ED004FF5DA900003120647FFE5F2543F4FF532
:1014FD00F2900006120713FBAAF090007EEAF0A30B
:10150D00EBF0C208900075EEF0900084EAF0A3EBCA
:10151D00F0F5EAEAF5FAED6401704F900096E0FB04
:10152D00A3E0FAA3E0F9900004120647FF90000231
:10153D00120647FE4FF5DB900003120647FFE5F359
:10154D00543F4FF5F3900006120713FBAAF09000DD
:10155D0080EAF0A3EBF0C209900076EEF0900086E1
:10156D00EAF0A3EBF0F5EBEAF5FBED6402704F90BA
:10157D000096E0FBA3E0FAA3E0F990000412064701
:10158D00FF900002120647FE4FF5DC900003120695
:10159D0047FFE5F4543F4FF5F4900006120713FD95
:1015AD00ACF0900082ECF0A3EDF0C20A900077EE63
:0F15BD00F0900088ECF0A3EDF0F5ECECF5FC22DB
:03003B000219188F
:10191800C0E0C083C082C0D075D000C006C0073008
:10192800D82AC2D830A50590007E8003900078E0C0
:10193800FEA3E0FF900085E02FF0900084E03EF0E9
:10194800900084E0FEA3E0F5EAEEF5FA30D92AC269
:10195800D930A605900080800390007AE0FEA3E0CD
:10196800FF900087E02FF0900086E03EF090008620
:10197800E0FEA3E0F5EBEEF5FB30DA2AC2DA30A799
:1019880005900082800390007CE0FEA3E0FF9000B9
:1019980089E02FF0900088E03EF0900088E0FEA3F8
:1019A800E0F5ECEEF5FCD007D006D0D0D082D0839D
:0319B800D0E0324A
:1009470090006EEBF0A3EAF0A3E9F090006DEFF0F2
:1009570064016003020B00A3E0FBA3E0FAA3E0F944
:1009670012062ED394C040037F022290000A12067B
:1009770047B40104D2BC8002C2BC12062EFFE59820
:10098700543F4FF598EF64C06008EF64406003027E
:100997000A7A9000021208987F007E607D547C00DE
:1009A7001207D69000711208D4E4FFFE7D01FC9077
:1009B7000071E0F8A3E0F9A3E0FAA3E0FBC3120893
:1009C7006840037F0222900071E0F8A3E0F9A3E0FA
:1009D700FAA3E0FBC3E49BFFE49AFE740199FDE4EC
:1009E70098FC9000711208D490006EE0FBA3E0FA27
:1009F700A3E0F9900001120647FB64017038C28E2C
:100A0700538EFE5389BF5389CF438E40900071E0C8
:100A1700FCA3E0FDA3E0FEA3E0FF78081208798FAE
:100A27008D900071A3A3A3E0F58BC2AB5389BF538D
:100A37008FFDD28E8076EB64027035538EEF438E36
:100A470001538EF7438E04900071E0FCA3E0FDA3F1
:100A5700E0FEA3E0FF78081208798FD6900071A313
:100A6700A3A3E0F5D753AFFB538EF7438E10803C1B
:100A77007F022290006EE0FBA3E0FAA3E0F91206E2
:100A87002EFF7013900008120647B40105438E200D
:100A9700801A538EDF8015EFB4801190000812067C
:100AA70047B40105438780800353877F90006EE03A
:100AB700FBA3E0FAA3E0F9900009120647B401048A
:100AC700D2AC8002C2AC900007120647B40104D230
:100AD7009C8002C29C90000B12064754C0FFE5A2FF
:100AE700543F4FF5A290000C120647B401054397F7
:100AF7001080035397EF7F002290006DE06402603F
:100B070003020C08A3E0FBA3E0FAA3E0F912062E08
:100B1700FF64C06008EF64406003020BC890000ADE
:100B2700120647B4010543B501800353B5FE12060B
:100B37002EB4C005439A808003539A7F9000021217
:100B470008987F007E607D547C001207D690007164
:100B57001208D4E4FFFE7D01FC900071E0F8A3E0E9
:100B6700F9A3E0FAA3E0FBC312086840037F02225F
:100B7700900071E0F8A3E0F9A3E0FAA3E0FBC3E477
:100B87009BFFE49AFE740199FDE498FC90007112B2
:100B970008D4538EEF538EF7438E04900071E0FC18
:100BA700A3E0FDA3E0FEA3E0FF78081208798FD643
:100BB700900071A3A3A3E0F5D753AFFB438E10803A
:100BC700037F022290006EE0FBA3E0FAA3E0F99016
:100BD7000009120647B4010543AF01800353AFFE76
:100BE700900007120647B40105439A108003539AF1
:100BF700EF90000B1206475401FFE5BA54FE4FF57C
:030C0700BA7F00B1
:010C0A0022C7
:100EBC00900060E4F0A37478F0A37401F0A3740FB5
:100ECC00F07B017A0079627F021210C130A00C30E5
:100EDC00A10930A20630A3030210C030A00C20A13F
:100EEC000920A20630A30302107520A00C20A10932
:100EFC0020A20620A30302107530A00C30A10920FB
:100F0C00A20630A30302107530A00C30A10920A258
:100F1C000620A30302107530A00B30A10830A205E7
:100F2C0020A302807330A00C20A10930A20630A3AC
:100F3C000302107520A00C20A10930A20630A303D7
:100F4C0002107520A00B30A10830A20530A302803E
:100F5C007330A00C20A10920A20620A30302104A82
:100F6C0020A02920A12620A22330A320900060E0FD
:100F7C00FEA3E0FFEE3395E0FDFCE47B16FAF9F8F6
:100F8C0012074BAD07AC067F040210BD30A0292020
:100F9C00A12630A22320A320900060E0FEA3E0FF56
:100FAC00EE3395E0FDFCE47B16FAF9F812074BAD35
:100FBC0007AC067F030210BD20A02930A12620A279
:100FCC002330A320900060E0FEA3E0FFEE3395E019
:100FDC00FDFCE47B16FAF9F812074BAD07AC067F63
:100FEC00020210BD20A07630A17330A27020A36D38
:100FFC00900060E0FEA3E0FFEE3395E0FDFCE47BA7
:10100C0016FAF9F812074BAD07AC067F0312175905
:10101C007F197E00121E31900060E0FEA3E0FFEE0F
:10102C003395E0FDFCE47B16FAF9F812074BAD079B
:10103C00AC067F021217597F197E00121E319000E8
:10104C0060E0FEA3E0FFEE3395E0FDFCE47B16FAD6
:10105C00F9F812074BAD07AC067F05805420A02889
:10106C0030A12520A22220A31F900060E0FEA3E067
:10107C00FFEE3395E0FDFCE47B16FAF9F812074B12
:10108C00AD07AC06E4FF802920A02920A12630A2C0
:10109C002320A320900060E0FEA3E0FFEE3395E058
:1010AC00FDFCE47B16FAF9F812074BAD07AC06E42D
:0410BC00FF121759AF
:0110C000220D
:1019BB00900060E4F0A37432F0A37401F0A3740FF1
:1019CB00F07B017A0079627F021210C120A60530EC
:1019DB00A702802B30A62220A71F900060E0FEA359
:1019EB00E0FFEE3395E0FDFCE47B16FAF9F8120705
:1019FB004BAD07AC067F04804820A62220A71F9082
:101A0B000060E0FEA3E0FFEE3395E0FDFCE47B1607
:101A1B00FAF9F812074BAD07AC067F05802330A609
:101A2B002330A720900060E0FEA3E0FFEE3395E0AB
:101A3B00FDFCE47B16FAF9F812074BAD07AC06E494
:041A4B00FF12175916
:011A4F002274
:03000000021AE4FD
:0C1AE400787FE4F6D8FD758121021B2BF1
:10062E00BB010689828A83E0225002E722BBFE02CA
:09063E00E32289828A83E49322FD
:10064700BB010CE58229F582E5833AF583E0225068
:1006570006E92582F8E622BBFE06E92582F8E222B2
:0D066700E58229F582E5833AF583E49322CC
:10067400BB010689828A83F0225002F722BBFE0165
:02068400F3225F
:10068600F8BB010DE58229F582E5833AF583E8F0AA
:10069600225006E92582C8F622BBFE05E92582C856
:0206A600F2223E
:1006A800BC000BBE0029EF8DF084FFADF022E4CC36
:1006B800F875F008EF2FFFEE33FEEC33FCEE9DECFF
:1006C800984005FCEE9DFE0FD5F0E9E4CEFD22ED45
:1006D800F8F5F0EE8420D21CFEADF075F008EF2F8F
:1006E800FFED33FD4007985006D5F0F222C398FD80
:0506F8000FD5F0EA221D
:1006FD00A3F8E0C5F025F0F0E582158270021583B0
:06070D00E0C838F0E8220C
:10071300BB0110E58229F582E5833AF583E0F5F024
:10072300A3E0225009E92582F886F008E622BBFE01
:100733000AE92582F8E2F5F008E222E5832AF58347
:08074300E993F5F0A3E993220C
:10074B00E88FF0A4CC8BF0A42CFCE98EF0A42CFC4D
:10075B008AF0EDA42CFCEA8EF0A4CDA8F08BF0A4CB
:10076B002DCC3825F0FDE98FF0A42CCD35F0FCEB2A
:10077B008EF0A4FEA9F0EB8FF0A4CFC5F02ECD39EF
:0F078B00FEE43CFCEAA42DCE35F0FDE43CFC225C
:10079A0075F008758200EF2FFFEE33FECD33CDCC16
:1007AA0033CCC58233C5829BED9AEC99E582984099
:1007BA000CF582EE9BFEED9AFDEC99FC0FD5F0D676
:1007CA00E4CEFBE4CDFAE4CCF9A88222B800C1B9A0
:1007DA000059BA002DEC8BF084CFCECDFCE5F0CBDE
:1007EA00F97818EF2FFFEE33FEED33FDEC33FCEB17
:1007FA0033FB10D703994004EB99FB0FD8E5E4F9D2
:10080A00FA227818EF2FFFEE33FEED33FDEC33FCBE
:10081A00C933C910D7059BE99A4007EC9BFCE99AB2
:10082A00F90FD8E0E4C9FAE4CCFB2275F010EF2FF7
:10083A00FFEE33FEED33FDCC33CCC833C810D707F7
:10084A009BEC9AE899400AED9BFDEC9AFCE899F832
:0E085A000FD5F0DAE4CDFBE4CCFAE4C8F922C5
:10086800EB9FF5F0EA9E42F0E99D42F0E89C45F0E6
:01087800225D
:10087900E8600FECC313FCED13FDEE13FEEF13FF5D
:03088900D8F12281
:0C088C00E6FC08E6FD08E6FE08E6FF2298
:10089800BB010DE58229F582E5833AF58302091E3D
:1008A8005007E92582F8020911BBFE07E92582F8FD
:1008B80002092AE58229F582E5833AF58302093798
:0C08C800ECF608EDF608EEF608EFF6225C
:0C08D400ECF0A3EDF0A3EEF0A3EFF02297
:1008E000A8828583F0D083D0821208F71208F7120D
:1008F00008F71208F7E473E493A3C583C5F0C58332
:10090000C8C582C8F0A3C583C5F0C583C8C582C861
:0109100022C4
:101AF000021BF8E493A3F8E493A34003F68001F2F9
:101B000008DFF48029E493A3F85407240CC8C333F6
:101B1000C4540F4420C8834004F456800146F6DFC5
:101B2000E4800B01020408102040809020DFE47E56
:101B3000019360BCA3FF543F30E509541FFEE493BA
:101B4000A360010ECF54C025E060A840B8E493A381
:101B5000FAE493A3F8E493A3C8C582C8CAC583CAAC
:101B6000F0A3C8C582C8CAC583CADFE9DEE780BE64
:01210B0000D3
:0D091100E6FB08E6F908E6FA08E6CBF82256
:0C091E00E0F8A3E0F9A3E0FAA3E0FB225C
:0D092A00E2FB08E2F908E2FA08E2CBF8224D
:10093700E493F8740193F9740293FA740393FB2216
:00000001FF
