:051E3F0042008C0000D0
:10003E00121E9C7F017E00121BDE121EF3121A2767
:10004E007F807E25121E6E7F647E00121BDE1219CB
:03005E00A080FB84
:101FA10090003C7403F0A3743FF07B017A00793C0C
:0C1FB100E4FF12107E7D3FE4FF021EC919
:101EF300E4900034F0A3F0A304F0E4A3F0A3F0A370
:101F030074F7F0A3745DF0A37401F0FB7A007934E5
:071F1300FF121247021FA19B
:101F1A00EF245DFDEE34F7FCC3E49FFFE49EC2AFFD
:101F2A0090007CF0A3EFF0AE04AF0590007AEEF0DB
:051F3A00A3EFF0D2AF9F
:011F3F00227F
:03001B00021D06BD
:101D0600C0E0C083C082C0D075D000C004C005301A
:101D1600841390007CE0FCA3E0FDECF58D8D8BC276
:101D260084C285801190007AE0FCA3E0FDECF58D7D
:101D36008D8BD284D285D005D004D0D0D082D083EA
:031D4600D0E032B8
:10158900900034EFF0A3ECF0A3EDF0C394F4EC94E5
:1015990001500A9000357401F0A374F4F0900035FD
:1015A900E0FEA3E0FFE4FCFD7BA27A08F9F8C31290
:1015B900087A500A9000357408F0A374A2F09000DC
:1015C90034E0B40700400302167D9015DAF82828A4
:1015D900730215EF0215F8021608021618021621F1
:1015E9000216380216567D08E4FF121EC980177DBF
:1015F90008E4FF121E0F7D04E4FF121EC9803E7D20
:1016090008E4FF121E0F7D04E4FF121E0F80177DF0
:1016190008E4FF121EC9803C7D08E4FF121E0F7DFD
:1016290004E4FF121EC97D01E4FF121EC980337D47
:1016390008E4FF121EC97D04E4FF121E0F7D01E4B8
:10164900FF121E0F7D02E4FF121EC9801C7D08E4F3
:10165900FF121E0F7D04E4FF121E0F7D01E4FF122D
:101669001E0F7D02E4FF121E0F900035E0FEA3E07D
:10167900FF021F1A7D08E4FF121E0F7D04E4FF120A
:101689001E0F7D01E4FF121E0F7D02E4FF121E0FE3
:01169900222E
:10006600000000000000000000000000000000008A
:10007600000000F80000000000000033300000001F
:1000860000100C06100C0600000000000000000026
:1000960040C07840C0784000043F04043F04040098
:1000A600007088FC08300000001820FF211E0000A8
:1000B600F008F000E018000000211C031E211E00BD
:1000C60000F00888700000001E2123241927211043
:1000D60010160E00000000000000000000000000E6
:1000E600000000E01804020000000007182040008D
:1000F60000020418E000000000402018070000007D
:10010600404080F0804040000202010F01020200E0
:10011600000000F0000000000101011F01010100C4
:10012600000000000000000080B070000000000029
:1001360000000000000000000001010101010101B2
:100146000000000000000000003030000000000049
:10015600000000008060180400601806010000001E
:1001660000E010080810E000000F102020100F001B
:10017600001010F8000000000020203F20200000A2
:1001860000700808088870000030282422213000FA
:1001960000300888884830000018202020110E0002
:1001A6000000C02010F8000000070424243F2400AB
:1001B60000F80888880808000019212020110E0080
:1001C60000E0108888180000000F112020110E0092
:1001D60000380808C83808000000003F000000008A
:1001E6000070880808887000001C222121221C004B
:1001F60000E010080810E0000000312222110F0074
:10020600000000C0C0000000000000303000000008
:100216000000008000000000000080600000000078
:100226000000804020100800000102040810200091
:1002360040404040404040000404040404040400DC
:100246000008102040800000002010080402010071
:10025600007048080808F000000000303601000071
:10026600C030C828E810E0000718272423140B0024
:100276000000C038E0000000203C2302022738209E
:1002860008F8888888700000203F202020110E0082
:10029600C030080808083800071820202010080079
:1002A60008F808080810E000203F202020100F0062
:1002B60008F88888E8081000203F2020232018002E
:1002C60008F88888E8081000203F20000300000096
:1002D600C03008080838000007182020221E020037
:1002E60008F808000008F808203F210101213F20F6
:1002F600000808F8080800000020203F2020000021
:1003060000000808F8080800C08080807F00000010
:1003160008F888C028180800203F20012638200049
:1003260008F8080000000000203F202020203000B0
:1003360008F8F800F8F80800203F003F003F2000CA
:1003460008F830C00008F808203F200007183F00D2
:10035600E01008080810E0000F10202020100F0001
:1003660008F808080808F000203F210101010000F4
:10037600E01008080810E0000F18242438504F0039
:1003860008F8888888887000203F2000030C3020F9
:1003960000708808080838000038202121221C0037
:1003A600180808F8080818000000203F2000000080
:1003B60008F808000008F808001F202020201F0069
:1003C6000878880000C83808000007380E010000C9
:1003D600F80800F80008F800033C0700073C030093
:1003E600081868808068180820302C03032C3020F9
:1003F6000838C800C83808000000203F2000000068
:1004060010080808C83808002038262120201800BF
:10041600000000FE020202000000007F4040400093
:10042600000C30C000000000000000010638C000CB
:1004360000020202FE000000004040407F00000073
:100446000000040202020400000000000000000098
:100456000000000000000000808080808080808096
:10046600000202040000000000000000000000007E
:1004760000008080808000000019242222223F2074
:1004860008F8008080000000003F112020110E00B7
:100496000000008080800000000E11202020110046
:1004A600000000808088F800000E112020103F20F8
:1004B6000000808080800000001F2222222213007C
:1004C600008080F0888888180020203F20200000C7
:1004D6000000808080808000006B9494949360007C
:1004E60008F8008080800000203F210000203F2087
:1004F60000809898000000000020203F2020000087
:10050600000000809898000000C08080807F000076
:1005160008F8000080808000203F24022D30200053
:10052600000808F8000000000020203F20200000FE
:100536008080808080808000203F20003F20003F18
:100546008080008080800000203F210000203F2026
:100556000000808080800000001F202020201F00D7
:10056600808000808000000080FFA12020110E0006
:100576000000008080808000000E112020A0FF80F7
:10058600808080008080800020203F2120000100A4
:1005960000008080808080000033242424241900F9
:1005A600008080E0808000000000001F2020000006
:1005B6008080000000808000001F202020103F2047
:1005C600808080000080808000010E3008060100D7
:1005D60080800080008080800F300C030C300F007C
:1005E60000808000808080000020312E0E312000A7
:1005F600808080000080808080818E7018060100D7
:1006060000808080808080000021302C22213000F4
:1006160000000000807C020200000000003F404015
:1006260000000000FF00000000000000FF000000C6
:100636000002027C800000000040403F00000000F5
:100646000006010102020404000000000000000090
:09205500EF6003D2A522C2A5220E
:09205E00EF6003D2A422C2A42207
:101DAF00E4900034F0A37420F07B017A0079347F43
:101DBF000212107EE4900034F0A37410F07B017ACD
:101DCF000079347F0212107E7F0112205502205EAF
:0F1FE8007F0112205E1220551F12205E0220552D
:0C203F00E4FF12205E0F12205502205E0C
:071D7D00AC07121FE87F789C
:021D8400AE07A8
:101D8600E4FDA8057480088002C313D8FC5EFF1228
:101D9600205E7F011220551F1220550DEDB408E27A
:091DA6007F011220551F02205597
:101FD800121D7DE4FF121D84AF04121D8402203FF0
:101F62003EF583E5822DF582E43583F583E493FF24
:101F7200121D7D7F40121D84AF04121D8402203F7A
:061F40001475F008A4FD79
:101F4600AB05EF44B0FF121FD8EB54F0C4540F4456
:0C1F560010FF121FD8EB540FFF021FD821
:101FBD00E4FAAF02E4FD121F46E4FBE4FF121F72C8
:0A1FCD000BEBB480F60AEAB408E852
:011FD70022E7
:0D188000900032EBF0900030EFF0A3EDF09F
:10188D00EF1425E0FFED121F40E4900033F09000BF
:10189D0033E0FDC394085029900032E0FF3395E00A
:1018AD00FEEFC4F8540FC868FFEEC454F048FE7440
:1018BD00662FF58274FE121F62900033E004F080F3
:1018CD00CD900030E025E014FFA3E0121F40E4901E
:1018DD000033F0900033E0FDC3940850299000329E
:1018ED00E0FF3395E0FEEFC4F8540FC868FFEEC477
:1018FD0054F048FE746E2FF58274FE121F62900034
:06190D0033E004F080CD80
:0119130022B1
:101C7A0090002AEFF0A3EDF0A3EBF0A3EAF0A3E9BA
:011C8A00F069
:101C8B00E4A3F090002CE0FBA3E0FAA3E0F9A3E0BF
:101C9B00F58275830012066FFB601B90002AE0FF34
:101CAB0090002FE0FE90002BE02EFD12188090008C
:061CBB002FE004F080CDD3
:011CC1002200
:101A2700121DAF7FAE121FD87FD5121FD87F80122D
:101A37001FD87FA8121FD87F3F121FD87FD3121F2E
:101A4700D8E4FF121FD87F40121FD87FA1121FD8DA
:101A57007FC8121FD87FDA121FD87F12121FD87FB4
:101A670081121FD87FCF121FD87FD9121FD87FF1BD
:101A7700121FD87FDB121FD87F30121FD87FA41206
:101A87001FD87FA6121FD87F8D121FD87F14121F51
:091A9700D87FAF121FD8021FBD59
:101E6E009000347440F0A37402F0E4FCFDA3120859
:101E7E00E690003B7401F0E4A3F0A304F0A3F0A3FA
:0E1E8E007440F07B017A0079347F010209591B
:051AA000900075EDF05F
:101AA500E4A3F0A3EBF0A3EAF0A3E9F0900075E05E
:101AB500FFA3E0FEC39F5055C2AF900001E0FF9029
:101AC5000000E0B50704D2AF8043900000E0240297
:101AD500F582E43400F583E0FF900077E0FBA3E0B6
:101AE500FAA3E0F98E82758300EF1206AE9000002E
:101AF500E02401FFE433FE7C007D281206D0AF050B
:101B0500EDF0D2AF00900076E004F0809F90007673
:021B1500E0FFEF
:011B170022AB
:101DDF00900086EBF0A3EAF0A3E9F0E4FFEFC39DD8
:101DEF00501D900086E0FBA3E0FAA3E0F98F827507
:0F1DFF00830012066FF5993099FDC2990F80DEAF
:011E0E0022B1
:03002300021B18A5
:101B1800C0E0C0F0C083C082C0D075D000C000C093
:091B280003C004C005C006C0079B
:101B3100309842AB99C298900001E02401FFE43350
:101B4100FE7C007D281206D0AF05900000E06D609C
:101B510024AF03A3E02402F582E43400F583EBF023
:101B6100900001E02401FFE433FE7C007D28120691
:051B7100D0AF05EDF00E
:101B7600D007D006D005D004D003D000D0D0D08274
:071B8600D083D0F0D0E03263
:080003008F993099FDC299228A
:100026007965657300776F726C64007374617274BE
:020036002100A7
:101E44004400510000000044004D00000000440024
:101E5400490000000041005A0041005B0041005964
:091E640000410057004100550047
:1019A000D28AC28BD2AAD2AFC2B8121FF71220239A
:1019B000EF7006122031EF60F4122078900058EF9B
:1019C000F012207E900056EFF0BF15087D947C0247
:1019D0007F01802B900056E0B446087D947C02E4A1
:1019E000FF801C900056E0B444087D947C027F0484
:1019F000800D900056E0B4431B7D947C027F05125D
:101A000015897FE87E03121BDE7DB87C017F0612FC
:101A100015898099900056E0644070917DB87C01F2
:071A20007F06121589808684
:03001300020C1DBF
:100C1D00C0E0C0F0C083C082C0D075D000C000C09D
:100C2D0001C002C003C004C005C006C007E4FFFE3A
:100C3D00FDFC900049E0F8A3E0F9A3E0FAA3E0FB86
:100C4D00C312087A701BFFFEFDFC121F907F017E00
:100C5D00001220159000491208F200000001020E4A
:100C6D005EE47F01FEFDFC900049E0F8A3E0F9A3EE
:100C7D00E0FAA3E0FBC312087A6003020D2F1220E5
:100C8D0006121F82E47F5C7E30FDFC90004DE0F883
:100C9D00A3E0F9A3E0FAA3E0FBD312087A402BE41A
:100CAD007F1C7E39FDFC90004DE0F8A3A3A3E0125C
:100CBD00087A50169000491208F2000000027BFFDE
:100CCD007A0079267D077F048052E47FFE7E29FD20
:100CDD00FC90004DE0F8A3E0F9A3E0FAA3E0FBD30C
:100CED0012087A402DE47FE67E2DFDFC90004DE04C
:100CFD00F8A3A3A3E012087A50189000597401F0DC
:100D0D00E4FFFE1220157BFF7A00792B7D017F0316
:100D1D00800A7BFF7A0079317D077F02121C7A02EF
:100D2D000E5EE47F02FEFDFC900049E0F8A3E0F9C1
:100D3D00A3E0FAA3E0FBC312087A6003020E5E1271
:100D4D002006121F82E47F6C7E02FDFC90004DE0B8
:100D5D00F8A3E0F9A3E0FAA3E0FBD312087A404030
:100D6D00E47F547E06FDFC90004DE0F8A3A3A3E0C4
:100D7D0012087A502B90005AE0FF131313541F24BE
:100D8D005CF582E43400F583C083C082E0FEEF544D
:100D9D0007FFF87401088002C333D8FCF45E805855
:100DAD00E47FD67E06FDFC90004DE0F8A3E0F9A3AC
:100DBD00E0FAA3E0FBD312087A404AE47FBE7E0A34
:100DCD00FDFC90004DE0F8A3A3A3E012087A503586
:100DDD0090005AE0FF131313541F245CF582E43482
:100DED0000F583C083C082E0FEEF5407FFF8740165
:100DFD00088002C333D8FC4ED082D083F090005AC5
:100E0D00E004F0800590005AE4F090005AE0C3949D
:100E1D0020403EE4F090005DE0F4FF90005CE0FEC9
:100E2D00B5071E90005FE0F4FF90005EE0FDB50792
:100E3D0010900057EEF0900055EDF090005B7401AE
:100E4D00F0E4FFFE1220159000491208F200000098
:100E5D0000D007D006D005D004D003D002D001D0E9
:0C0E6D0000D0D0D082D083D0F0D0E03292
:0F1FF700538EFB75D7EE75D6FF43AF04D2AF22E2
:03006300021C2F4D
:101C2F00C0E0C0F0C083C082C0D075D000C000C07B
:101C3F0004C005C006C007900051E0FCA3E0FDA35F
:101C4F00E0FEA3E0240AFFE43EFEE43DFDE43CFC9D
:101C5F009000511208E6D007D006D005D004D0006E
:0B1C6F00D0D0D082D083D0F0D0E03283
:0E201500EF64014E7004438E1022538EEF22B2
:0E1F820090004D1208E67F007E007D007C007E
:101F900090002A1208E69000511208F2000000009A
:011FA000221E
:0F200600900051E0FCA3E0FDA3E0FEA3E0FF2269
:0E20230090005BE06005E4F07F01227F002268
:0E203100900059E06005E4F07F01227F00225C
:06207800900057E0FF227A
:06207E00900055E0FF2276
:10107E00EFD3940540057E007F0122120656FDD364
:10108E00940340057E007F0222EF7041ED700B90BD
:10109E00000112066FF452935294120656B4010BCD
:1010AE0090000112066F4293F45294120656FEB44B
:1010BE00020A90000112066F42934294EEB4030DA1
:1010CE0090000112066FFEF45293EE4294EF64010B
:1010DE007043120656FE700B90000112066FF4520A
:1010EE00915292EEB4010B90000112066F4291F4F0
:1010FE005292120656B4020A90000112066F4291E5
:10110E004292120656B4030D90000112066FFEF4C1
:10111E005291EE4292EF64027043120656FE700B2D
:10112E0090000112066FF452955296EEB4010B9098
:10113E00000112066F4295F45296120656B4020A38
:10114E0090000112066F42954296120656B4030D98
:10115E0090000112066FFEF45295EE4296EF640374
:10116E007043120656FE700B90000112066FF45279
:10117E00B152B2EEB4010B90000112066F42B1F4FF
:10118E0052B2120656B4020A90000112066F42B114
:10119E0042B2120656B4030D90000112066FFEF411
:1011AE0052B1EE42B2EF64047043120656FE700B5B
:1011BE0090000112066FF452B352B4EEB4010B90CC
:1011CE00000112066F42B3F452B4120656B4020A6C
:1011DE0090000112066F42B342B4120656B4030DCC
:1011EE0090000112066FFEF452B3EE42B4EF6405A6
:1011FE007043120656FF700B90000112066FF452E8
:10120E00C952CAEFB4010B90000112066F42C9F425
:10121E0052CA120656B4020A90000112066F42C953
:10122E0042CA120656B4030D90000112066FFFF467
:09123E0052C9EF42CAE4FEFF228E
:101EC900EF7003ED4280EFB40103ED4290EFB402ED
:101ED90003ED42A0EFB40303ED42B0EFB40403ED08
:0A1EE90042C0EFB40503ED42C82229
:101E0F00EF7004EDF45280EFB40104EDF45290EF53
:101E1F00B40204EDF452A0EFB40304EDF452B0EFAA
:101E2F00B40404EDF452C0EFB40504EDF452C8222B
:101D4900EF7004AE808026EFB40104AE90801EEFE0
:101D5900B40204AEA08016EFB40304AEB0800EEF57
:101D6900B40404AEC08006EFB40507AEC8EE5D2426
:031D7900FF22C383
:011D7C002244
:02001600F8CD23
:101E9C009000347401F0A3F0A3F0A3F0E4A3F0904D
:101EAC00001693FF740193900039CFF0A3EFF0A3C9
:0D1EBC007401F0FB7A007934E4FF02124754
:03000B00021B8D48
:101B8D00C0E0C0F0C083C082C0D075D000C000C01E
:101B9D0004C005C006C007900016E493FE740193BF
:101BAD00F58AEEF58C780812089EEF2401FFE43ECD
:101BBD00FEE43DFDE43CFC78081208DAD007D006BF
:101BCD00D005D004D000D0D0D082D083D0F0D0E0DA
:011BDD0032D5
:09204B00C2AF780812089ED2AF62
:012054002269
:04000E007F03DFFE8F
:0100120022CB
:072070000000007F34DFFED9
:012077002246
:082067007F037E1ADEFEDFFCA0
:01206F00224E
:101CC200AD07AC06C3ED9464EC9400400D1220679E
:101CD200749C2DFD74FF3CFC80EAC3ED940AEC94E5
:101CE20000400D12207074F62DFD74FF3CFC80EA5A
:101CF200D3ED9400EC9400400A12000EED1D70F03A
:041D02001C80ED2232
:081BDE00900034EEF0A3EFF0DB
:101BE60012204B9000361208E612204B90003A1253
:101BF60008E6900036E0F8A3E0F9A3E0FAA3E0FBDC
:101C0600A3E0FCA3E0FDA3E0FEA3E0C39BFBEE9AEA
:101C1600FAED99F9EC98F8900034E0FEA3E0FFE4C1
:081C2600FCFDC312087A40C165
:011C2E002293
:10124700AD07EDD3940240057E007F0122ED6003D8
:101257000212DDC28C90000212066FB40104D2A9FB
:101267008002C2A990000112066FB40104D2B980AE
:1012770002C2B9120656FCD3940340030213E5E5F4
:101287008954FC4CF58990000312066FFFB40103E3
:10129700538E7FEF7003438E80EFB40205438904BA
:1012A70080035389FB90000412066FB40105438F36
:1012B700018003538FFE900005120725E5F0F58C9A
:1012C700900005120725F58A90000712066FB401F2
:1012D70002D28C0213E1ED6401600302136CC28E2B
:1012E70090000212066FB40104D2AB8002C2AB9029
:1012F700000112066FB40104D2BB8002C2BB120602
:1013070056FCC3940340030213E5ECC454F0FFE515
:101317008954CF4FF58990000312066FFFB401037C
:10132700538EBFEF7003438E40EFB40205438940ED
:1013370080035389BF90000412066FB40105438FE1
:10134700028003538FFD900005120725E5F0F58D08
:10135700900005120725F58B90000712066FB40160
:1013670002D28E8075ED64027074538EEF90000286
:1013770012066FB4010543AF04800353AFFB90001F
:101387000312066FFDD3940240028052EDB40103AD
:10139700538EFB90000312066F7003438E04900078
:1013A7000312066FB40205438E088003538EF7902D
:1013B700000412066FB40105438F048003538FFBAB
:1013C700900005120725FDACF0ECF5D68DD79000FF
:1013D7000712066FB40103438E10E4FEFF227E005E
:0313E7007F022260
:10169A00EF7034D3ED9450EC940F40047C0F7D50DE
:1016AA00C3ED9450EC940050047C007D50C2DE904F
:1016BA000069ECF0A3EDF0C374A09D900064F0748F
:1016CA000F9C9000638073EF64017034D3ED9468CB
:1016DA00EC940B40047C0B7D68C3ED9450EC9400B1
:1016EA0050047C007D50C2DE90006BECF0A3EDF05C
:1016FA00C374B89D900066F0740B9C900065803AA4
:10170A00EF64027038D3ED9480EC940740047C07B0
:10171A007D80C3ED9450EC940050047C007D50C24F
:10172A00DE90006DECF0A3EDF0AE04FFC374D09F21
:0E173A00900068F074079E900067F0D2DE22E7
:1013EA00900089EBF0A3EAF0A3E9F0AD07EDD394FE
:1013FA00034003021588ED6403704CC2DEF5F9F56B
:10140A00E9900089E0FBA3E0FAA3E0F9120656FF8F
:10141A00E5A254CF4FF5A290000112066FFFE5D95D
:10142A0054F14FF5D990000412066F5401FFE5D923
:10143A0054FE4FF5D990000512066FB40104D2BFCD
:10144A008002C2BFD2DE22900089E0FBA3E0FAA3A9
:10145A00E02404F9E43AFA120656543112069C9032
:10146A000089E0FBA3E0FAA3E0F990000212066FFC
:10147A00C39448400FE92404F9E43AFA1206565490
:10148A00CF12069CED704F900089E0FBA3E0FAA30F
:10149A00E0F990000412066FFF90000212066FFE38
:1014AA004FF5DA90000312066FFFE5F2543F4FF54D
:1014BA00F2900006120725FBAAF0900069EAF0A351
:1014CA00EBF0C200900060EEF090006FEAF0A3EB40
:1014DA00F0F5EAEAF5FAED6401704F900089E0FB55
:1014EA00A3E0FAA3E0F990000412066FFF9000024D
:1014FA0012066FFE4FF5DB90000312066FFFE5F34D
:10150A00543F4FF5F3900006120725FBAAF090000E
:10151A006BEAF0A3EBF0C201900061EEF09000716B
:10152A00EAF0A3EBF0F5EBEAF5FBED6402704F90FD
:10153A000089E0FBA3E0FAA3E0F990000412066F29
:10154A00FF90000212066FFE4FF5DC9000031206B0
:10155A006FFFE5F4543F4FF5F4900006120725FD9E
:10156A00ACF090006DECF0A3EDF0C202900062EED8
:0F157A00F0900073ECF0A3EDF0F5ECECF5FC2233
:03003B0002174861
:10174800C0E0C083C082C0D075D000C006C00730DA
:10175800D82AC2D830A5059000698003900063E0BC
:10176800FEA3E0FF900070E02FF090006FE03EF0E5
:1017780090006FE0FEA3E0F5EAEEF5FA30D92AC250
:10178800D930A60590006B8003900065E0FEA3E0C9
:10179800FF900072E02FF0900071E03EF090007131
:1017A800E0FEA3E0F5EBEEF5FB30DA2AC2DA30A76B
:1017B8000590006D8003900067E0FEA3E0FF9000B5
:1017C80074E02FF0900073E03EF0900073E0FEA309
:1017D800E0F5ECEEF5FCD007D006D0D0D082D0836F
:0317E800D0E0321C
:10095900900042EBF0A3EAF0A3E9F0900041EFF038
:1009690064016003020B12A3E0FBA3E0FAA3E0F920
:10097900120656D394C040037F022290000A120641
:100989006FB40104D2BC8002C2BC120656FFE598BE
:10099900543F4FF598EF64C06008EF64406003026C
:1009A9000A8C9000021208AA7F007E607D547C00A8
:1009B9001207E89000451208E6E4FFFE7D01FC906D
:1009C9000045E0F8A3E0F9A3E0FAA3E0FBC31208AD
:1009D9007A40037F0222900045E0F8A3E0F9A3E002
:1009E900FAA3E0FBC3E49BFFE49AFE740199FDE4DA
:1009F90098FC9000451208E6900042E0FBA3E0FA5B
:100A0900A3E0F990000112066FFB64017038C28EF1
:100A1900538EFE5389BF5389CF438E40900045E0E2
:100A2900FCA3E0FDA3E0FEA3E0FF780812088B8F8A
:100A39008D900045A3A3A3E0F58BC2AB5389BF53A7
:100A49008FFDD28E8076EB64027035538EEF438E24
:100A590001538EF7438E04900045E0FCA3E0FDA30B
:100A6900E0FEA3E0FF780812088B8FD6900045A31B
:100A7900A3A3E0F5D753AFFB538EF7438E10803C09
:100A89007F0222900042E0FBA3E0FAA3E0F91206FC
:100A990056FF701390000812066FB40105438E20AB
:100AA900801A538EDF8015EFB4801190000812066A
:100AB9006FB40105438780800353877F900042E02C
:100AC900FBA3E0FAA3E0F990000912066FB4010450
:100AD900D2AC8002C2AC90000712066FB40104D2F6
:100AE9009C8002C29C90000B12066F54C0FFE5A2C5
:100AF900543F4FF5A290000C12066FB401054397BD
:100B09001080035397EF7F0022900041E064026058
:100B190003020C1AA3E0FBA3E0FAA3E0F9120656BC
:100B2900FF64C06008EF64406003020BDA90000ABA
:100B390012066FB4010543B501800353B5FE1206D1
:100B490056B4C005439A808003539A7F90000212DD
:100B590008AA7F007E607D547C001207E89000455A
:100B69001208E6E4FFFE7D01FC900045E0F8A3E0F1
:100B7900F9A3E0FAA3E0FBC312087A40037F02223B
:100B8900900045E0F8A3E0F9A3E0FAA3E0FBC3E491
:100B99009BFFE49AFE740199FDE498FC90004512CC
:100BA90008E6538EEF538EF7438E04900045E0FC20
:100BB900A3E0FDA3E0FEA3E0FF780812088B8FD61F
:100BC900900045A3A3A3E0F5D753AFFB438E108054
:100BD900037F0222900042E0FBA3E0FAA3E0F99030
:100BE900000912066FB4010543AF01800353AFFE3C
:100BF90090000712066FB40105439A108003539AB7
:100C0900EF90000B12066F5401FFE5BA54FE4FF541
:030C1900BA7F009F
:010C1C0022B5
:100E790090007EE4F0A37478F0A37401F0A3740FDA
:100E8900F07B017A0079807F0212107E30A00C304D
:100E9900A10930A20630A30302107D30A00C20A1C5
:100EA9000920A20630A30302103220A00C20A109B8
:100EB90020A20620A30302103230A00C30A1092081
:100EC900A20630A30302103230A00C30A10920A2DF
:100ED9000620A30302103230A00B30A10830A2056E
:100EE90020A302807330A00C20A10930A20630A3F0
:100EF9000302103220A00C20A10930A20630A3035E
:100F090002103220A00B30A10830A20530A30280C4
:100F19007330A00C20A10920A20620A30302100708
:100F290020A02920A12620A22330A32090007EE022
:100F3900FEA3E0FFEE3395E0FDFCE47B16FAF9F839
:100F490012075DAD07AC067F0402107A30A0292094
:100F5900A12630A22320A32090007EE0FEA3E0FF7B
:100F6900EE3395E0FDFCE47B16FAF9F812075DAD66
:100F790007AC067F0302107A20A02930A12620A2FF
:100F89002330A32090007EE0FEA3E0FFEE3395E03E
:100F9900FDFCE47B16FAF9F812075DAD07AC067F94
:100FA9000202107A20A07630A17330A27020A36DBE
:100FB90090007EE0FEA3E0FFEE3395E0FDFCE47BCC
:100FC90016FAF9F812075DAD07AC067F0312158909
:100FD9007F197E00121BDE90007EE0FEA3E0FFEE8B
:100FE9003395E0FDFCE47B16FAF9F812075DAD07CD
:100FF900AC067F021215897F197E00121BDE900054
:101009007EE0FEA3E0FFEE3395E0FDFCE47B16FAFB
:10101900F9F812075DAD07AC067F05805420A028BA
:1010290030A12520A22220A31F90007EE0FEA3E08C
:10103900FFEE3395E0FDFCE47B16FAF9F812075D43
:10104900AD07AC06E4FF802920A02920A12630A203
:101059002320A32090007EE0FEA3E0FFEE3395E07D
:10106900FDFCE47B16FAF9F812075DAD07AC06E45E
:04107900FF121589C4
:01107D002250
:1017EB00900082E4F0A37432F0A37401F0A3740FA1
:1017FB00F07B017A0079847F0212107E20A60530DF
:10180B00A702802B30A62220A71F900082E0FEA308
:10181B00E0FFEE3395E0FDFCE47B16FAF9F81207D6
:10182B005DAD07AC067F04804820A62220A71F9041
:10183B000082E0FEA3E0FFEE3395E0FDFCE47B16B7
:10184B00FAF9F812075DAD07AC067F05802330A6C9
:10185B002330A720900082E0FEA3E0FFEE3395E05B
:10186B00FDFCE47B16FAF9F812075DAD07AC06E454
:04187B00FF121589BA
:01187F002246
:03000000021914CE
:0C191400787FE4F6D8FD75812002195B95
:10065600BB010689828A83E0225002E722BBFE02A2
:09066600E32289828A83E49322D5
:10066F00BB010CE58229F582E5833AF583E0225040
:10067F0006E92582F8E622BBFE06E92582F8E2228A
:0D068F00E58229F582E5833AF583E49322A4
:10069C00BB010689828A83F0225002F722BBFE013D
:0206AC00F32237
:1006AE00F8BB010DE58229F582E5833AF583E8F082
:1006BE00225006E92582C8F622BBFE05E92582C82E
:0206CE00F22216
:1006D000BC000BBE0029EF8DF084FFADF022E4CC0E
:1006E000F875F008EF2FFFEE33FEEC33FCEE9DECD7
:1006F000984005FCEE9DFE0FD5F0E9E4CEFD22ED1D
:10070000F8F5F0EE8420D21CFEADF075F008EF2F66
:10071000FFED33FD4007985006D5F0F222C398FD57
:050720000FD5F0EA22F4
:10072500BB0110E58229F582E5833AF583E0F5F012
:10073500A3E0225009E92582F886F008E622BBFEEF
:100745000AE92582F8E2F5F008E222E5832AF58335
:08075500E993F5F0A3E99322FA
:10075D00E88FF0A4CC8BF0A42CFCE98EF0A42CFC3B
:10076D008AF0EDA42CFCEA8EF0A4CDA8F08BF0A4B9
:10077D002DCC3825F0FDE98FF0A42CCD35F0FCEB18
:10078D008EF0A4FEA9F0EB8FF0A4CFC5F02ECD39DD
:0F079D00FEE43CFCEAA42DCE35F0FDE43CFC224A
:1007AC0075F008758200EF2FFFEE33FECD33CDCC04
:1007BC0033CCC58233C5829BED9AEC99E582984087
:1007CC000CF582EE9BFEED9AFDEC99FC0FD5F0D664
:1007DC00E4CEFBE4CDFAE4CCF9A88222B800C1B98E
:1007EC000059BA002DEC8BF084CFCECDFCE5F0CBCC
:1007FC00F97818EF2FFFEE33FEED33FDEC33FCEB05
:10080C0033FB10D703994004EB99FB0FD8E5E4F9BF
:10081C00FA227818EF2FFFEE33FEED33FDEC33FCAC
:10082C00C933C910D7059BE99A4007EC9BFCE99AA0
:10083C00F90FD8E0E4C9FAE4CCFB2275F010EF2FE5
:10084C00FFEE33FEED33FDCC33CCC833C810D707E5
:10085C009BEC9AE899400AED9BFDEC9AFCE899F820
:0E086C000FD5F0DAE4CDFBE4CCFAE4C8F922B3
:10087A00EB9FF5F0EA9E42F0E99D42F0E89C45F0D4
:01088A00224B
:10088B00E8600FECC313FCED13FDEE13FEEF13FF4B
:03089B00D8F1226F
:0C089E00E6FC08E6FD08E6FE08E6FF2286
:1008AA00BB010DE58229F582E5833AF58302093019
:1008BA005007E92582F8020923BBFE07E92582F8D9
:1008CA0002093CE58229F582E5833AF58302094962
:0C08DA00ECF608EDF608EEF608EFF6224A
:0C08E600ECF0A3EDF0A3EEF0A3EFF02285
:1008F200A8828583F0D083D08212090912090912D5
:100902000909120909E473E493A3C583C5F0C583F9
:10091200C8C582C8F0A3C583C5F0C583C8C582C84F
:0109220022B2
:1019200002003EE493A3F8E493A34003F68001F29F
:1019300008DFF48029E493A3F85407240CC8C333C8
:10194000C4540F4420C8834004F456800146F6DF97
:10195000E4800B0102040810204080901E3FE47ECA
:10196000019360BCA3FF543F30E509541FFEE4938C
:10197000A360010ECF54C025E060A840B8E493A353
:10198000FAE493A3F8E493A3C8C582C8CAC583CA7E
:10199000F0A3C8C582C8CAC583CADFE9DEE780BE36
:011E6D000074
:0D092300E6FB08E6F908E6FA08E6CBF82244
:0C093000E0F8A3E0F9A3E0FAA3E0FB224A
:0D093C00E2FB08E2F908E2FA08E2CBF8223B
:10094900E493F8740193F9740293FA740393FB2204
:00000001FF
