:1019AC004100240060200004000000000000000042
:1019BC00000000000000000000000000000000001B
:0819CC00000000000000000013
:101C6600121DB37F017E00121A52121E0A1216FFAF
:101C76007F807E25121D85121778121955121F2096
:101C8600E4900001F07F64FE121A521217F080FBF6
:040016000140018024
:10195500E490009FF0A3F0A3F0A3F078A37C007DB2
:10196500017BFF7A007916FE7F021206FE78A57CC0
:10197500007D017BFF7A0079187E007F021206FE4A
:101985007B017A0079A37F02120E7290009FEEF020
:10199500A3EFF07B017A0079A57F02120E72900009
:0619A500A1EEF0A3EFF03B
:0119AB002219
:101C96007D407F02121C0092007D807F02121C0094
:101CA60092013000062001037F0022200006200159
:0F1CB600037F01223000063001037F02227F02EC
:011CC50022FC
:101B3500121C96EF14600F146019240270357DBCD9
:101B45007C07E4FF80067DBC7C077F0212137D7F46
:101B550064801B7DBC7C077F0312137D7F737E0031
:101B6500121A527DBC7C07E4FF12137D7F197E009B
:041B7500121A5222CC
:080003000101010201080104E2
:0419D4004100CD0001
:10177800789F7C007D017BFF7A0079037E007F02E1
:101788001206FE78A17C007D017BFF7A0079057E38
:10179800007F021206FE78A37C007D017BFF7A00A1
:1017A80079077E007F021206FE78A57C007D017B0A
:1017B800FF7A0079097E007F021206FE7B017A001B
:1017C800799F7F02120E727B017A0079A17F021243
:1017D8000E727B017A0079A37F02120E727B017A66
:0817E8000079A57F02020E72D8
:101AA3007D017F02121C0092007D027F02121C0046
:101AB30092017D087F02121C0092027D047F0212B4
:101AC3001C009203300103200307E49000CDF0FFD4
:101AD300222002089000CD7402F0FF229000CD2056
:091AE30000057401F0FF22E0FF90
:011AEC0022D7
:101D5600121AA3EF14600F146014240270207DF68B
:101D66007C06E4FF800E7DBC7C077F0280067DBC7E
:0F1D76007C077F0312137D7F017E00121A522219
:1019D80041005400602000340000000000000000B6
:1019E80000000000000000000000000000000000EF
:0819F8000000000000000000E7
:071F2000D28AD2AAD2AF223F
:1017F000900031E024F4605724F7603B24FD6054EE
:1018000024D8601324FD602214601724FE70517DDB
:101810004C7C04E4FF80267D4C7C047F0612137D03
:1018200080CE7D4C7C047F0480067D4C7C047F054B
:1018300012137D7F32800B7D4C7C047F0112137D5F
:101840007FFA7E00121A529000317440F080A1128B
:101850001B358003121D567F147E00121B79809069
:081860009000317440F0808813
:03001300020C6B71
:100C6B00C0E0C0F0C083C082C0D075D000C000C04F
:100C7B0001C002C003C004C005C006C007C2AFC29A
:100C8B00AA900032E4F0A3F020B317900033E004F5
:100C9B00F07006900032E004F07F647E00121B7946
:100CAB0080E6C3900033E09431900032E06480948E
:100CBB00805003020E50E4F0A3F030B317900033D2
:100CCB00E004F07006900032E004F07F647E0012C6
:100CDB001B7980E6C3900033E09416900032E064F9
:100CEB008094805003020E50900055E4F030B3FD19
:100CFB00900032E4F0A3F030B317900033E004F02F
:100D0B007006900032E004F07F647E00121B798045
:100D1B00E6D3900033E09408900032E06480948036
:100D2B00900055E0400E2434F582E43400F58374D2
:100D3B0001F0800B2434F582E43400F583E4F09069
:100D4B000055E004F0E0C3942040A2900030E4F0A2
:100D5B00900032F0A3F0900032E0FEA3E0FFC394CA
:100D6B0008EE64809480503874342FF58274003E02
:100D7B00F583E0601B900032A3E0243CF582740005
:100D8B003EF583E0640160089000307401F0801040
:100D9B00900033E004F070BE900032E004F080B6B7
:100DAB00900030E06003020E50900032F0A3F09000
:100DBB000030F0900032F0A3F0900032E0FEA3E0A0
:100DCB00FF244CF58274003EF583E0FD74442FF54F
:100DDB008274003EF583E0B505089000307401F095
:100DEB00801A900033E004F07006900032E004F0BB
:100DFB00900032E07004A3E0640870BD900030E016
:100E0B007043A3F090005F7410F090005FE0FFC39D
:100E1B009418503174342FF582E43400F583E0B428
:100E2B00011B900031E0FF90005FE024F0FEF874AE
:100E3B0001088002C333D8FC4F900031F090005F63
:100E4B00E004F080C5438804D2AAD2AFD007D00605
:100E5B00D005D004D003D002D001D000D0D0D082A6
:070E6B00D083D0F0D0E0328B
:101E99009000A77403F0A3743FF07B017A0079A73F
:0C1EA900E4FF120E727D3FE4FF021DE01A
:101E0A00E490009FF0A3F0A304F0E4A3F0A3F0A3EE
:101E1A0074F7F0A3745DF0A37401F0FB7A00799F64
:071E2A00FF12103B021E999C
:101E3100EF245DFDEE34F7FCC3E49FFFE49EC2AFE7
:101E41009000C1F0A3EFF0AE04AF059000BFEEF03B
:051E5100A3EFF0D2AF89
:011E56002269
:03001B00021BBD08
:101BBD00C0E0C083C082C0D075D000C004C0053065
:101BCD0084139000C1E0FCA3E0FDECF58D8D8BC27C
:101BDD0084C28580119000BFE0FCA3E0FDECF58D83
:101BED008D8BD284D285D005D004D0D0D082D08335
:031BFD00D0E03203
:10137D0090009FEFF0A3ECF0A3EDF0C394F4EC9488
:10138D0001500A9000A07401F0A374F4F09000A035
:10139D00E0FEA3E0FFE4FCFD7BA27A08F9F8C3129E
:1013AD0008F9500A9000A07408F0A374A2F0900000
:1013BD009FE0B4070040030214719013CEF8282863
:1013CD00730213E30213EC0213FC02140C02141546
:1013DD0002142C02144A7D08E4FF121DE080177DD3
:1013ED0008E4FF121D267D04E4FF121DE0803E7D02
:1013FD0008E4FF121D267D04E4FF121D2680177DD3
:10140D0008E4FF121DE0803C7D08E4FF121D267DDF
:10141D0004E4FF121DE07D01E4FF121DE080337D29
:10142D0008E4FF121DE07D04E4FF121D267D01E49A
:10143D00FF121D267D02E4FF121DE0801C7D08E4D5
:10144D00FF121D267D04E4FF121D267D01E4FF120F
:10145D001D267D02E4FF121D269000A0E0FEA3E0F4
:10146D00FF021E317D08E4FF121D267D04E4FF12EC
:10147D001D267D01E4FF121D267D02E4FF121D26AF
:01148D00223C
:10003E0000000000000000000000000000000000B2
:10004E00000000F800000000000000333000000047
:10005E0000100C06100C060000000000000000004E
:10006E0040C07840C0784000043F04043F040400C0
:10007E00007088FC08300000001820FF211E0000D0
:10008E00F008F000E018000000211C031E211E00E5
:10009E0000F00888700000001E212324192721106B
:1000AE0010160E000000000000000000000000000E
:1000BE00000000E0180402000000000718204000B5
:1000CE0000020418E00000000040201807000000A5
:1000DE00404080F0804040000202010F0102020009
:1000EE00000000F0000000000101011F01010100ED
:1000FE00000000000000000080B070000000000052
:10010E0000000000000000000001010101010101DA
:10011E000000000000000000003030000000000071
:10012E000000000080601804006018060100000046
:10013E0000E010080810E000000F102020100F0043
:10014E00001010F8000000000020203F20200000CA
:10015E000070080808887000003028242221300022
:10016E0000300888884830000018202020110E002A
:10017E000000C02010F8000000070424243F2400D3
:10018E0000F80888880808000019212020110E00A8
:10019E0000E0108888180000000F112020110E00BA
:1001AE0000380808C83808000000003F00000000B2
:1001BE000070880808887000001C222121221C0073
:1001CE0000E010080810E0000000312222110F009C
:1001DE00000000C0C0000000000000303000000031
:1001EE0000000080000000000000806000000000A1
:1001FE0000008040201008000001020408102000BA
:10020E004040404040404000040404040404040004
:10021E000008102040800000002010080402010099
:10022E00007048080808F000000000303601000099
:10023E00C030C828E810E0000718272423140B004C
:10024E000000C038E0000000203C230202273820C6
:10025E0008F8888888700000203F202020110E00AA
:10026E00C0300808080838000718202020100800A1
:10027E0008F808080810E000203F202020100F008A
:10028E0008F88888E8081000203F20202320180056
:10029E0008F88888E8081000203F200003000000BE
:1002AE00C03008080838000007182020221E02005F
:1002BE0008F808000008F808203F210101213F201E
:1002CE00000808F8080800000020203F2020000049
:1002DE0000000808F8080800C08080807F00000039
:1002EE0008F888C028180800203F20012638200072
:1002FE0008F8080000000000203F202020203000D9
:10030E0008F8F800F8F80800203F003F003F2000F2
:10031E0008F830C00008F808203F200007183F00FA
:10032E00E01008080810E0000F10202020100F0029
:10033E0008F808080808F000203F2101010100001C
:10034E00E01008080810E0000F18242438504F0061
:10035E0008F8888888887000203F2000030C302021
:10036E0000708808080838000038202121221C005F
:10037E00180808F8080818000000203F20000000A8
:10038E0008F808000008F808001F202020201F0091
:10039E000878880000C83808000007380E010000F1
:1003AE00F80800F80008F800033C0700073C0300BB
:1003BE00081868808068180820302C03032C302021
:1003CE000838C800C83808000000203F2000000090
:1003DE0010080808C83808002038262120201800E8
:1003EE00000000FE020202000000007F40404000BC
:1003FE00000C30C000000000000000010638C000F4
:10040E0000020202FE000000004040407F0000009B
:10041E0000000402020204000000000000000000C0
:10042E0000000000000000008080808080808080BE
:10043E0000020204000000000000000000000000A6
:10044E0000008080808000000019242222223F209C
:10045E0008F8008080000000003F112020110E00DF
:10046E000000008080800000000E1120202011006E
:10047E00000000808088F800000E112020103F2020
:10048E000000808080800000001F222222221300A4
:10049E00008080F0888888180020203F20200000EF
:1004AE000000808080808000006B949494936000A4
:1004BE0008F8008080800000203F210000203F20AF
:1004CE0000809898000000000020203F20200000AF
:1004DE00000000809898000000C08080807F00009F
:1004EE0008F8000080808000203F24022D3020007C
:1004FE00000808F8000000000020203F2020000027
:10050E008080808080808000203F20003F20003F40
:10051E008080008080800000203F210000203F204E
:10052E000000808080800000001F202020201F00FF
:10053E00808000808000000080FFA12020110E002E
:10054E000000008080808000000E112020A0FF801F
:10055E00808080008080800020203F2120000100CC
:10056E000000808080808000003324242424190021
:10057E00008080E0808000000000001F202000002E
:10058E008080000000808000001F202020103F206F
:10059E00808080000080808000010E3008060100FF
:1005AE0080800080008080800F300C030C300F00A4
:1005BE0000808000808080000020312E0E312000CF
:1005CE00808080000080808080818E7018060100FF
:1005DE0000808080808080000021302C222130001D
:1005EE0000000000807C020200000000003F40403E
:1005FE0000000000FF00000000000000FF000000EF
:10060E000002027C800000000040403F000000001D
:10061E0000060101020204040000000000000000B8
:091EF500EF6003D2A522C2A52270
:091EFE00EF6003D2A422C2A42269
:101CC600E490009FF0A37420F07B017A00799F7F57
:101CD60002120E72E490009FF0A37410F07B017A5A
:101CE60000799F7F02120E727F01121EF5021EFE00
:0F1ED0007F01121EFE121EF51F121EFE021EF5CE
:0C1EDF00E4FF121EFE0F121EF5021EFE94
:071C3400AC07121ED07F78FF
:021C3B00AE07F2
:101C3D00E4FDA8057480088002C313D8FC5EFF1272
:101C4D001EFE7F01121EF51F121EF50DEDB408E2EA
:091C5D007F01121EF51F021EF5A5
:10002600121C34E4FF121C3BAF04121C3B021EDF01
:101E79003EF583E5822DF582E43583F583E493FF0E
:101E8900121C347F40121C3BAF04121C3B021EDFA4
:061E57001475F008A4FD63
:101E5D00AB05EF44B0FF120026EB54F0C4540F4411
:0C1E6D0010FF120026EB540FFF020026AD
:101EB500E4FAAF02E4FD121E5DE4FBE4FF121E89A5
:0A1EC5000BEBB480F60AEAB408E85B
:011ECF0022F0
:0D15DF009000C5EBF09000C3EFF0A3EDF01D
:1015EC00EF1425E0FFED121E57E49000C6F09000BA
:1015FC00C6E0FDC3940850299000C5E0FF3395E088
:10160C00FEEFC4F8540FC868FFEEC454F048FE74E3
:10161C003E2FF58274FE121E799000C6E004F08015
:10162C00CD9000C3E025E014FFA3E0121E57E49018
:10163C0000C6F09000C6E0FDC3940850299000C588
:10164C00E0FF3395E0FEEFC4F8540FC868FFEEC41A
:10165C0054F048FE74462FF58274FE121E799000E9
:06166C00C6E004F080CD91
:011672002255
:101AED009000B4EFF0A3EDF0A3EBF0A3EAF0A3E9BF
:011AFD00F0F8
:101AFE00E4A3F09000B6E0FBA3E0FAA3E0F9A3E0C4
:101B0E00F58275830012073DFB601B9000B4E0FF69
:101B1E009000B9E0FE9000B5E02EFD1215DF9000AA
:061B2E00B9E004F080CDD7
:011B3400228E
:1016FF00121CC67FAE1200267FD51200267F8012E5
:10170F0000267FA81200267F3F1200267FD31200EB
:10171F0026E4FF1200267F401200267FA11200262A
:10172F007FC81200267FDA1200267F121200267F52
:10173F00811200267FCF1200267FD91200267FF15B
:10174F001200267FDB1200267F301200267FA412A4
:10175F0000267FA61200267F8D1200267F1412000E
:09176F00267FAF120026021EB510
:101D850090009F7440F0A37402F0E4FCFDA31209D7
:101D9500659000A67401F0E4A3F0A304F0A3F0A3FA
:0E1DA5007440F07B017A00799F7F010209A74C
:051868009000BAEDF054
:10186D00E4A3F0A3EBF0A3EAF0A3E9F09000BAE053
:10187D00FFA3E0FEC39F5055C2AF900061E0FF9003
:10188D000060E0B50704D2AF8043900060E02462B1
:10189D00F582E43400F583E0FF9000BCE0FBA3E0AB
:1018AD00FAA3E0F98E82758300EF12077C90006039
:1018BD00E02401FFE433FE7C007D2812079EAF0576
:1018CD00EDF0D2AF009000BBE004F0809F9000BB24
:0218DD00E0FF2A
:0118DF0022E6
:101CF6009000C7EBF0A3EAF0A3E9F0E4FFEFC39D81
:101D0600501D9000C7E0FBA3E0FAA3E0F98F8275AF
:0F1D1600830012073DF5993099FDC2990F80DEC9
:011D2500229B
:030023000218E0E0
:1018E000C0E0C0F0C083C082C0D075D000C000C0CE
:0918F00003C004C005C006C007D6
:1018F900309842AB99C298900061E02401FFE4332B
:10190900FE7C007D2812079EAF05900060E06D60A7
:1019190024AF03A3E02462F582E43400F583EBF0FD
:10192900900061E02401FFE433FE7C007D2812076A
:051939009EAF05EDF07A
:10193E00D007D006D005D004D003D000D0D0D082AE
:07194E00D083D0F0D0E0329D
:081F10008F993099FDC299225E
:100E7200EFD3940540057E007F0122120724FDD3A3
:100E8200940340057E007F0222EF7041ED700B90CB
:100E9200000112073DF452935294120724B4010B3D
:100EA20090000112073D4293F45294120724FEB4BB
:100EB200020A90000112073D42934294EEB4030DE0
:100EC20090000112073DFEF45293EE4294EF64014A
:100ED2007043120724FE700B90000112073DF4527A
:100EE200915292EEB4010B90000112073D4291F42F
:100EF2005292120724B4020A90000112073D429155
:100F02004292120724B4030D90000112073DFEF431
:100F12005291EE4292EF64027043120724FE700B6C
:100F220090000112073DF452955296EEB4010B90D7
:100F3200000112073D4295F45296120724B4020AA8
:100F420090000112073D42954296120724B4030D08
:100F520090000112073DFEF45295EE4296EF6403B3
:100F62007043120724FE700B90000112073DF452E9
:100F7200B152B2EEB4010B90000112073D42B1F43E
:100F820052B2120724B4020A90000112073D42B184
:100F920042B2120724B4030D90000112073DFEF481
:100FA20052B1EE42B2EF64047043120724FE700B9A
:100FB20090000112073DF452B352B4EEB4010B900B
:100FC200000112073D42B3F452B4120724B4020ADC
:100FD20090000112073D42B342B4120724B4030D3C
:100FE20090000112073DFEF452B3EE42B4EF6405E5
:100FF2007043120724FF700B90000112073DF45258
:10100200C952CAEFB4010B90000112073D42C9F464
:1010120052CA120724B4020A90000112073D42C9C3
:1010220042CA120724B4030D90000112073DFFF4D7
:0910320052C9EF42CAE4FEFF229C
:101DE000EF7003ED4280EFB40103ED4290EFB402D7
:101DF00003ED42A0EFB40303ED42B0EFB40403EDF2
:0A1E000042C0EFB40503ED42C82212
:101D2600EF7004EDF45280EFB40104EDF45290EF3D
:101D3600B40204EDF452A0EFB40304EDF452B0EF94
:101D4600B40404EDF452C0EFB40504EDF452C82215
:101C0000EF7004AE808026EFB40104AE90801EEF2A
:101C1000B40204AEA08016EFB40304AEB0800EEFA1
:101C2000B40404AEC08006EFB40507AEC8EE5D2470
:031C3000FF22C3CD
:011C3300228E
:02001E00F8CD1B
:101DB30090009F7401F0A3F0A3F0A3F0E4A3F090CC
:101DC300001E93FF7401939000A4CFF0A3EFF0A340
:0D1DD3007401F0FB7A00799FE4FF02103BE1
:03000B00021A01D5
:101A0100C0E0C0F0C083C082C0D075D000C000C0AB
:101A110004C005C006C00790001EE493FE74019344
:101A2100F58AEEF58C780812091DEF2401FFE43EDA
:101A3100FEE43DFDE43CFC7808120959D007D006CC
:101A4100D005D004D000D0D0D082D083D0F0D0E067
:011A51003262
:091EEB00C2AF780812091DD2AF44
:011EF40022CB
:04000E007F03DFFE8F
:0100120022CB
:071F18000000007F34DFFE32
:011F1F00229F
:081F07007F037E1ADEFEDFFC01
:011F0F0022AF
:101B7900AD07AC06C3ED9464EC9400400D121F0749
:101B8900749C2DFD74FF3CFC80EAC3ED940AEC942F
:101B990000400D121F1874F62DFD74FF3CFC80EAFD
:101BA900D3ED9400EC9400400A12000EED1D70F084
:041BB9001C80ED227D
:081A520090009FEEF0A3EFF0FD
:101A5A00121EEB9000A1120965121EEB9000A5124E
:101A6A0009659000A1E0F8A3E0F9A3E0FAA3E0FB7E
:101A7A00A3E0FCA3E0FDA3E0FEA3E0C39BFBEE9A78
:101A8A00FAED99F9EC98F890009FE0FEA3E0FFE4E4
:081A9A00FCFDC31208F940C174
:011AA2002221
:10103B00AD07EDD3940240057E007F0122ED6003E6
:10104B000210D1C28C90000212073DB40104D2A948
:10105B008002C2A990000112073DB40104D2B980ED
:10106B0002C2B9120724FCD3940340030211D9E541
:10107B008954FC4CF58990000312073DFFB4010322
:10108B00538E7FEF7003438E80EFB40205438904C8
:10109B0080035389FB90000412073DB40105438F75
:1010AB00018003538FFE9000051207F3E5F0F58CDA
:1010BB009000051207F3F58A90000712073DB40163
:1010CB0002D28C0211D5ED64016003021160C28E55
:1010DB0090000212073DB40104D2AB8002C2AB9068
:1010EB00000112073DB40104D2BB8002C2BB120740
:1010FB0024FCC3940340030211D9ECC454F0FFE564
:10110B008954CF4FF58990000312073DFFB40103BB
:10111B00538EBFEF7003438E40EFB40205438940FB
:10112B0080035389BF90000412073DB40105438F20
:10113B00028003538FFD9000051207F3E5F0F58D48
:10114B009000051207F3F58B90000712073DB401D1
:10115B0002D28E8075ED64027074538EEF90000294
:10116B0012073DB4010543AF04800353AFFB90005E
:10117B000312073DFDD3940240028052EDB40103EC
:10118B00538EFB90000312073D7003438E049000B7
:10119B000312073DB40205438E088003538EF7906C
:1011AB00000412073DB40105438F048003538FFBEA
:1011BB009000051207F3FDACF0ECF5D68DD790003F
:1011CB000712073DB40103438E10E4FEFF227E009D
:0311DB007F02226E
:10148E00EF7034D3ED9450EC940F40047C0F7D50EC
:10149E00C3ED9450EC940050047C007D50C2DE905D
:1014AE000093ECF0A3EDF0C374A09D90008EF07449
:1014BE000F9C90008D8073EF64017034D3ED9468AF
:1014CE00EC940B40047C0B7D68C3ED9450EC9400BF
:1014DE0050047C007D50C2DE900095ECF0A3EDF040
:1014EE00C374B89D900090F0740B9C90008F803A5E
:1014FE00EF64027038D3ED9480EC940740047C07BF
:10150E007D80C3ED9450EC940050047C007D50C25D
:10151E00DE900097ECF0A3EDF0AE04FFC374D09F05
:0E152E00900092F074079E900091F0D2DE22A1
:1011DE009000CAEBF0A3EAF0A3E9F0AD07EDD394CB
:1011EE0003400302137CED6403704CC2DEF5F9F587
:1011FE00E99000CAE0FBA3E0FAA3E0F9120724FF8E
:10120E00E5A254CF4FF5A290000112073DFFE5D99C
:10121E0054F14FF5D990000412073D5401FFE5D962
:10122E0054FE4FF5D990000512073DB40104D2BF0C
:10123E008002C2BFD2DE229000CAE0FBA3E0FAA376
:10124E00E02404F9E43AFA120724543112076A90A2
:10125E0000CAE0FBA3E0FAA3E0F990000212073DFA
:10126E00C39448400FE92404F9E43AFA12072454CF
:10127E00CF12076AED704F9000CAE0FBA3E0FAA30D
:10128E00E0F990000412073DFF90000212073DFEA8
:10129E004FF5DA90000312073DFFE5F2543F4FF58C
:1012AE00F29000061207F3FBAAF0900093EAF0A367
:1012BE00EBF0C20490008AEEF0900099EAF0A3EBF6
:1012CE00F0F5EAEAF5FAED6401704F9000CAE0FB22
:1012DE00A3E0FAA3E0F990000412073DFF9000028C
:1012EE0012073DFE4FF5DB90000312073DFFE5F3BD
:1012FE00543F4FF5F39000061207F3FBAAF090004F
:10130E0095EAF0A3EBF0C20590008BEEF090009BF7
:10131E00EAF0A3EBF0F5EBEAF5FBED6402704F900B
:10132E0000CAE0FBA3E0FAA3E0F990000412073D27
:10133E00FF90000212073DFE4FF5DC9000031207EE
:10134E003DFFE5F4543F4FF5F49000061207F3FD10
:10135E00ACF0900097ECF0A3EDF0C20690008CEE8E
:0F136E00F090009DECF0A3EDF0F5ECECF5FC2217
:03003B0002153C6F
:10153C00C0E0C083C082C0D075D000C006C00730E8
:10154C00D82AC2D830A505900093800390008DE076
:10155C00FEA3E0FF90009AE02FF0900099E03EF09F
:10156C00900099E0FEA3E0F5EAEEF5FA30D92AC234
:10157C00D930A605900095800390008FE0FEA3E083
:10158C00FF90009CE02FF090009BE03EF090009BC1
:10159C00E0FEA3E0F5EBEEF5FB30DA2AC2DA30A779
:1015AC00059000978003900091E0FEA3E0FF90006F
:1015BC009EE02FF090009DE03EF090009DE0FEA399
:1015CC00E0F5ECEEF5FCD007D006D0D0D082D0837D
:0315DC00D0E0322A
:1009A7009000ADEBF0A3EAF0A3E9F09000ACEFF014
:1009B70064016003020B60A3E0FBA3E0FAA3E0F984
:1009C700120724D394C040037F022290000A120723
:1009D7003DB40104D2BC8002C2BC120724FFE598D3
:1009E700543F4FF598EF64C06008EF64406003021E
:1009F7000ADA9000021209297F007E607D547C008C
:100A07001208679000B0120965E4FFFE7D01FC90B3
:100A170000B0E0F8A3E0F9A3E0FAA3E0FBC31208F3
:100A2700F940037F02229000B0E0F8A3E0F9A3E0C9
:100A3700FAA3E0FBC3E49BFFE49AFE740199FDE48B
:100A470098FC9000B01209659000ADE0FBA3E0FAB6
:100A5700A3E0F990000112073DFB64017038C28ED4
:100A6700538EFE5389BF5389CF438E409000B0E029
:100A7700FCA3E0FDA3E0FEA3E0FF780812090A8FBC
:100A87008D9000B0A3A3A3E0F58BC2AB5389BF53EE
:100A97008FFDD28E8076EB64027035538EEF438ED6
:100AA70001538EF7438E049000B0E0FCA3E0FDA352
:100AB700E0FEA3E0FF780812090A8FD69000B0A3E2
:100AC700A3A3E0F5D753AFFB538EF7438E10803CBB
:100AD7007F02229000ADE0FBA3E0FAA3E0F9120742
:100AE70024FF701390000812073DB40105438E20C0
:100AF700801A538EDF8015EFB4801190000812071B
:100B07003DB40105438780800353877F9000ADE0A4
:100B1700FBA3E0FAA3E0F990000912073DB4010432
:100B2700D2AC8002C2AC90000712073DB40104D2D8
:100B37009C8002C29C90000B12073D54C0FFE5A2A7
:100B4700543F4FF5A290000C12073DB4010543979F
:100B57001080035397EF7F00229000ACE06402609F
:100B670003020C68A3E0FBA3E0FAA3E0F912072451
:100B7700FF64C06008EF64406003020C2890000A1D
:100B870012073DB4010543B501800353B5FE1207B3
:100B970024B4C005439A808003539A7F90000212C1
:100BA70009297F007E607D547C001208679000B0A1
:100BB700120965E4FFFE7D01FC9000B0E0F8A3E0B8
:100BC700F9A3E0FAA3E0FBC31208F940037F02226E
:100BD7009000B0E0F8A3E0F9A3E0FAA3E0FBC3E4D8
:100BE7009BFFE49AFE740199FDE498FC9000B01213
:100BF7000965538EEF538EF7438E049000B0E0FCE7
:100C0700A3E0FDA3E0FEA3E0FF780812090A8FD650
:100C17009000B0A3A3A3E0F5D753AFFB438E10809A
:100C2700037F02229000ADE0FBA3E0FAA3E0F99076
:100C3700000912073DB4010543AF01800353AFFE1E
:100C470090000712073DB40105439A108003539A99
:100C5700EF90000B12073D5401FFE5BA54FE4FF524
:030C6700BA7F0051
:010C6A002267
:0300000002167372
:0C167300787FE4F6D8FD7581200216BADD
:10062E00E709F608DFFA8046E709F208DFFA803EAE
:10063E0088828C83E709F0A3DFFA8032E309F6089B
:10064E00DFFA8078E309F208DFFA807088828C8303
:10065E00E309F0A3DFFA806489828A83E0A3F608B7
:10066E00DFFA805889828A83E0A3F208DFFA804C91
:10067E0080D280FA80C680D4806980F28033801068
:10068E0080A680EA809A80A880DA80E280CA8033D1
:10069E0089828A83ECFAE493A3C8C582C8CCC58349
:1006AE00CCF0A3C8C582C8CCC583CCDFE9DEE78019
:1006BE000D89828A83E493A3F608DFF9ECFAA9F098
:1006CE00EDFB2289828A83ECFAE0A3C8C582C8CCEE
:1006DE00C583CCF0A3C8C582C8CCC583CCDFEADE07
:1006EE00E880DB89828A83E493A3F208DFF980CC69
:1006FE0088F0EF60010E4E60C388F0ED2402B40462
:10070E000050B9F582EB2402B4040050AF23234508
:06071E00822390067E73A9
:10072400BB010689828A83E0225002E722BBFE02D3
:09073400E32289828A83E4932206
:10073D00BB010CE58229F582E5833AF583E0225071
:10074D0006E92582F8E622BBFE06E92582F8E222BB
:0D075D00E58229F582E5833AF583E49322D5
:10076A00BB010689828A83F0225002F722BBFE016E
:02077A00F32268
:10077C00F8BB010DE58229F582E5833AF583E8F0B3
:10078C00225006E92582C8F622BBFE05E92582C85F
:02079C00F22247
:10079E00BC000BBE0029EF8DF084FFADF022E4CC3F
:1007AE00F875F008EF2FFFEE33FEEC33FCEE9DEC08
:1007BE00984005FCEE9DFE0FD5F0E9E4CEFD22ED4E
:1007CE00F8F5F0EE8420D21CFEADF075F008EF2F98
:1007DE00FFED33FD4007985006D5F0F222C398FD89
:0507EE000FD5F0EA2226
:1007F300BB0110E58229F582E5833AF583E0F5F044
:10080300A3E0225009E92582F886F008E622BBFE20
:100813000AE92582F8E2F5F008E222E5832AF58366
:08082300E993F5F0A3E993222B
:10082B0075F008758200EF2FFFEE33FECD33CDCC84
:10083B0033CCC58233C5829BED9AEC99E582984007
:10084B000CF582EE9BFEED9AFDEC99FC0FD5F0D6E4
:10085B00E4CEFBE4CDFAE4CCF9A88222B800C1B90E
:10086B000059BA002DEC8BF084CFCECDFCE5F0CB4C
:10087B00F97818EF2FFFEE33FEED33FDEC33FCEB85
:10088B0033FB10D703994004EB99FB0FD8E5E4F940
:10089B00FA227818EF2FFFEE33FEED33FDEC33FC2D
:1008AB00C933C910D7059BE99A4007EC9BFCE99A21
:1008BB00F90FD8E0E4C9FAE4CCFB2275F010EF2F66
:1008CB00FFEE33FEED33FDCC33CCC833C810D70766
:1008DB009BEC9AE899400AED9BFDEC9AFCE899F8A1
:0E08EB000FD5F0DAE4CDFBE4CCFAE4C8F92234
:1008F900EB9FF5F0EA9E42F0E99D42F0E89C45F055
:0109090022CB
:10090A00E8600FECC313FCED13FDEE13FEEF13FFCB
:03091A00D8F122EF
:0C091D00E6FC08E6FD08E6FE08E6FF2206
:10092900BB010DE58229F582E5833AF58302097E4B
:100939005007E92582F8020971BBFE07E92582F80B
:1009490002098AE58229F582E5833AF58302099746
:0C095900ECF608EDF608EEF608EFF622CA
:0C096500ECF0A3EDF0A3EEF0A3EFF02205
:10167F00021C66E493A3F8E493A34003F68001F2FF
:10168F0008DFF48029E493A3F85407240CC8C3336C
:10169F00C4540F4420C8834004F456800146F6DF3B
:1016AF00E4800B01020408102040809019ACE47E06
:1016BF00019360BCA3FF543F30E509541FFEE49330
:1016CF00A360010ECF54C025E060A840B8E493A3F7
:1016DF00FAE493A3F8E493A3C8C582C8CAC583CA22
:1016EF00F0A3C8C582C8CAC583CADFE9DEE780BEDA
:011A000000E5
:0D097100E6FB08E6F908E6FA08E6CBF822F6
:0C097E00E0F8A3E0F9A3E0FAA3E0FB22FC
:0D098A00E2FB08E2F908E2FA08E2CBF822ED
:10099700E493F8740193F9740293FA740393FB22B6
:00000001FF
